{
  "_format": "hh-sol-artifact-1",
  "contractName": "TalentLayerService",
  "sourceName": "contracts/TalentLayerService.sol",
  "abi": [
    {
      "inputs": [],
      "stateMutability": "nonpayable",
      "type": "constructor"
    },
    {
      "anonymous": false,
      "inputs": [
        {
          "indexed": false,
          "internalType": "address",
          "name": "previousAdmin",
          "type": "address"
        },
        {
          "indexed": false,
          "internalType": "address",
          "name": "newAdmin",
          "type": "address"
        }
      ],
      "name": "AdminChanged",
      "type": "event"
    },
    {
      "anonymous": false,
      "inputs": [
        {
          "indexed": false,
          "internalType": "address",
          "name": "tokenAddress",
          "type": "address"
        },
        {
          "indexed": false,
          "internalType": "bool",
          "name": "isWhitelisted",
          "type": "bool"
        },
        {
          "indexed": false,
          "internalType": "uint256",
          "name": "minimumTransactionAmount",
          "type": "uint256"
        }
      ],
      "name": "AllowedTokenListUpdated",
      "type": "event"
    },
    {
      "anonymous": false,
      "inputs": [
        {
          "indexed": true,
          "internalType": "address",
          "name": "beacon",
          "type": "address"
        }
      ],
      "name": "BeaconUpgraded",
      "type": "event"
    },
    {
      "anonymous": false,
      "inputs": [
        {
          "indexed": false,
          "internalType": "uint8",
          "name": "version",
          "type": "uint8"
        }
      ],
      "name": "Initialized",
      "type": "event"
    },
    {
      "anonymous": false,
      "inputs": [
        {
          "indexed": false,
          "internalType": "uint256",
          "name": "minCompletionPercentage",
          "type": "uint256"
        }
      ],
      "name": "MinCompletionPercentageUpdated",
      "type": "event"
    },
    {
      "anonymous": false,
      "inputs": [
        {
          "indexed": true,
          "internalType": "address",
          "name": "previousOwner",
          "type": "address"
        },
        {
          "indexed": true,
          "internalType": "address",
          "name": "newOwner",
          "type": "address"
        }
      ],
      "name": "OwnershipTransferred",
      "type": "event"
    },
    {
      "anonymous": false,
      "inputs": [
        {
          "indexed": false,
          "internalType": "uint256",
          "name": "serviceId",
          "type": "uint256"
        },
        {
          "indexed": false,
          "internalType": "uint256",
          "name": "ownerId",
          "type": "uint256"
        },
        {
          "indexed": false,
          "internalType": "string",
          "name": "dataUri",
          "type": "string"
        },
        {
          "indexed": false,
          "internalType": "enum TalentLayerService.ProposalStatus",
          "name": "status",
          "type": "uint8"
        },
        {
          "indexed": false,
          "internalType": "uint256",
          "name": "rateAmount",
          "type": "uint256"
        },
        {
          "indexed": false,
          "internalType": "uint256",
          "name": "platformId",
          "type": "uint256"
        },
        {
          "indexed": false,
          "internalType": "uint256",
          "name": "expirationDate",
          "type": "uint256"
        },
        {
          "indexed": false,
          "internalType": "uint256",
          "name": "referrerId",
          "type": "uint256"
        }
      ],
      "name": "ProposalCreated",
      "type": "event"
    },
    {
      "anonymous": false,
      "inputs": [
        {
          "indexed": false,
          "internalType": "uint256",
          "name": "serviceId",
          "type": "uint256"
        },
        {
          "indexed": false,
          "internalType": "uint256",
          "name": "ownerId",
          "type": "uint256"
        },
        {
          "indexed": false,
          "internalType": "string",
          "name": "dataUri",
          "type": "string"
        },
        {
          "indexed": false,
          "internalType": "uint256",
          "name": "rateAmount",
          "type": "uint256"
        },
        {
          "indexed": false,
          "internalType": "uint256",
          "name": "expirationDate",
          "type": "uint256"
        },
        {
          "indexed": false,
          "internalType": "uint256",
          "name": "referrerId",
          "type": "uint256"
        }
      ],
      "name": "ProposalUpdated",
      "type": "event"
    },
    {
      "anonymous": false,
      "inputs": [
        {
          "indexed": true,
          "internalType": "bytes32",
          "name": "role",
          "type": "bytes32"
        },
        {
          "indexed": true,
          "internalType": "bytes32",
          "name": "previousAdminRole",
          "type": "bytes32"
        },
        {
          "indexed": true,
          "internalType": "bytes32",
          "name": "newAdminRole",
          "type": "bytes32"
        }
      ],
      "name": "RoleAdminChanged",
      "type": "event"
    },
    {
      "anonymous": false,
      "inputs": [
        {
          "indexed": true,
          "internalType": "bytes32",
          "name": "role",
          "type": "bytes32"
        },
        {
          "indexed": true,
          "internalType": "address",
          "name": "account",
          "type": "address"
        },
        {
          "indexed": true,
          "internalType": "address",
          "name": "sender",
          "type": "address"
        }
      ],
      "name": "RoleGranted",
      "type": "event"
    },
    {
      "anonymous": false,
      "inputs": [
        {
          "indexed": true,
          "internalType": "bytes32",
          "name": "role",
          "type": "bytes32"
        },
        {
          "indexed": true,
          "internalType": "address",
          "name": "account",
          "type": "address"
        },
        {
          "indexed": true,
          "internalType": "address",
          "name": "sender",
          "type": "address"
        }
      ],
      "name": "RoleRevoked",
      "type": "event"
    },
    {
      "anonymous": false,
      "inputs": [
        {
          "indexed": false,
          "internalType": "uint256",
          "name": "id",
          "type": "uint256"
        }
      ],
      "name": "ServiceCancelled",
      "type": "event"
    },
    {
      "anonymous": false,
      "inputs": [
        {
          "indexed": false,
          "internalType": "uint256",
          "name": "id",
          "type": "uint256"
        },
        {
          "indexed": false,
          "internalType": "uint256",
          "name": "ownerId",
          "type": "uint256"
        },
        {
          "indexed": false,
          "internalType": "uint256",
          "name": "platformId",
          "type": "uint256"
        },
        {
          "indexed": false,
          "internalType": "string",
          "name": "dataUri",
          "type": "string"
        },
        {
          "indexed": false,
          "internalType": "address",
          "name": "rateToken",
          "type": "address"
        },
        {
          "indexed": false,
          "internalType": "uint256",
          "name": "referralAmount",
          "type": "uint256"
        }
      ],
      "name": "ServiceCreated",
      "type": "event"
    },
    {
      "anonymous": false,
      "inputs": [
        {
          "indexed": false,
          "internalType": "uint256",
          "name": "id",
          "type": "uint256"
        },
        {
          "indexed": false,
          "internalType": "string",
          "name": "dataUri",
          "type": "string"
        },
        {
          "indexed": false,
          "internalType": "uint256",
          "name": "referralAmount",
          "type": "uint256"
        }
      ],
      "name": "ServiceUpdated",
      "type": "event"
    },
    {
      "anonymous": false,
      "inputs": [
        {
          "indexed": false,
          "internalType": "address",
          "name": "forwarder",
          "type": "address"
        }
      ],
      "name": "TrustedForwarderAdded",
      "type": "event"
    },
    {
      "anonymous": false,
      "inputs": [
        {
          "indexed": false,
          "internalType": "address",
          "name": "forwarder",
          "type": "address"
        }
      ],
      "name": "TrustedForwarderRemoved",
      "type": "event"
    },
    {
      "anonymous": false,
      "inputs": [
        {
          "indexed": true,
          "internalType": "address",
          "name": "implementation",
          "type": "address"
        }
      ],
      "name": "Upgraded",
      "type": "event"
    },
    {
      "inputs": [],
      "name": "DEFAULT_ADMIN_ROLE",
      "outputs": [
        {
          "internalType": "bytes32",
          "name": "",
          "type": "bytes32"
        }
      ],
      "stateMutability": "view",
      "type": "function"
    },
    {
      "inputs": [],
      "name": "ESCROW_ROLE",
      "outputs": [
        {
          "internalType": "bytes32",
          "name": "",
          "type": "bytes32"
        }
      ],
      "stateMutability": "view",
      "type": "function"
    },
    {
      "inputs": [
        {
          "internalType": "address",
          "name": "_forwarder",
          "type": "address"
        }
      ],
      "name": "addTrustedForwarder",
      "outputs": [],
      "stateMutability": "nonpayable",
      "type": "function"
    },
    {
      "inputs": [
        {
          "internalType": "uint256",
          "name": "_serviceId",
          "type": "uint256"
        },
        {
          "internalType": "uint256",
          "name": "_proposalId",
          "type": "uint256"
        },
        {
          "internalType": "uint256",
          "name": "_transactionId",
          "type": "uint256"
        }
      ],
      "name": "afterDeposit",
      "outputs": [],
      "stateMutability": "nonpayable",
      "type": "function"
    },
    {
      "inputs": [
        {
          "internalType": "uint256",
          "name": "_serviceId",
          "type": "uint256"
        },
        {
          "internalType": "uint256",
          "name": "_releasedAmount",
          "type": "uint256"
        }
      ],
      "name": "afterFullPayment",
      "outputs": [],
      "stateMutability": "nonpayable",
      "type": "function"
    },
    {
      "inputs": [
        {
          "internalType": "address",
          "name": "",
          "type": "address"
        }
      ],
      "name": "allowedTokenList",
      "outputs": [
        {
          "internalType": "bool",
          "name": "isWhitelisted",
          "type": "bool"
        },
        {
          "internalType": "uint256",
          "name": "minimumTransactionAmount",
          "type": "uint256"
        }
      ],
      "stateMutability": "view",
      "type": "function"
    },
    {
      "inputs": [
        {
          "internalType": "uint256",
          "name": "_profileId",
          "type": "uint256"
        },
        {
          "internalType": "uint256",
          "name": "_serviceId",
          "type": "uint256"
        }
      ],
      "name": "cancelService",
      "outputs": [],
      "stateMutability": "nonpayable",
      "type": "function"
    },
    {
      "inputs": [
        {
          "internalType": "uint256",
          "name": "_profileId",
          "type": "uint256"
        },
        {
          "internalType": "uint256",
          "name": "_serviceId",
          "type": "uint256"
        },
        {
          "internalType": "uint256",
          "name": "_rateAmount",
          "type": "uint256"
        },
        {
          "internalType": "uint256",
          "name": "_platformId",
          "type": "uint256"
        },
        {
          "internalType": "string",
          "name": "_dataUri",
          "type": "string"
        },
        {
          "internalType": "uint256",
          "name": "_expirationDate",
          "type": "uint256"
        },
        {
          "internalType": "bytes",
          "name": "_signature",
          "type": "bytes"
        },
        {
          "internalType": "uint256",
          "name": "_referrerId",
          "type": "uint256"
        }
      ],
      "name": "createProposal",
      "outputs": [],
      "stateMutability": "payable",
      "type": "function"
    },
    {
      "inputs": [
        {
          "internalType": "uint256",
          "name": "_profileId",
          "type": "uint256"
        },
        {
          "internalType": "uint256",
          "name": "_platformId",
          "type": "uint256"
        },
        {
          "internalType": "string",
          "name": "_dataUri",
          "type": "string"
        },
        {
          "internalType": "bytes",
          "name": "_signature",
          "type": "bytes"
        },
        {
          "internalType": "address",
          "name": "_rateToken",
          "type": "address"
        },
        {
          "internalType": "uint256",
          "name": "_referralAmount",
          "type": "uint256"
        }
      ],
      "name": "createService",
      "outputs": [
        {
          "internalType": "uint256",
          "name": "",
          "type": "uint256"
        }
      ],
      "stateMutability": "payable",
      "type": "function"
    },
    {
      "inputs": [
        {
          "internalType": "uint256",
          "name": "_serviceId",
          "type": "uint256"
        },
        {
          "internalType": "uint256",
          "name": "_proposalId",
          "type": "uint256"
        }
      ],
      "name": "getProposal",
      "outputs": [
        {
          "components": [
            {
              "internalType": "enum TalentLayerService.ProposalStatus",
              "name": "status",
              "type": "uint8"
            },
            {
              "internalType": "uint256",
              "name": "ownerId",
              "type": "uint256"
            },
            {
              "internalType": "address",
              "name": "rateToken",
              "type": "address"
            },
            {
              "internalType": "uint256",
              "name": "rateAmount",
              "type": "uint256"
            },
            {
              "internalType": "uint256",
              "name": "platformId",
              "type": "uint256"
            },
            {
              "internalType": "string",
              "name": "dataUri",
              "type": "string"
            },
            {
              "internalType": "uint256",
              "name": "expirationDate",
              "type": "uint256"
            },
            {
              "internalType": "uint256",
              "name": "referrerId",
              "type": "uint256"
            }
          ],
          "internalType": "struct TalentLayerService.Proposal",
          "name": "",
          "type": "tuple"
        }
      ],
      "stateMutability": "view",
      "type": "function"
    },
    {
      "inputs": [
        {
          "internalType": "bytes32",
          "name": "role",
          "type": "bytes32"
        }
      ],
      "name": "getRoleAdmin",
      "outputs": [
        {
          "internalType": "bytes32",
          "name": "",
          "type": "bytes32"
        }
      ],
      "stateMutability": "view",
      "type": "function"
    },
    {
      "inputs": [
        {
          "internalType": "uint256",
          "name": "_serviceId",
          "type": "uint256"
        }
      ],
      "name": "getService",
      "outputs": [
        {
          "components": [
            {
              "internalType": "enum TalentLayerService.Status",
              "name": "status",
              "type": "uint8"
            },
            {
              "internalType": "uint256",
              "name": "ownerId",
              "type": "uint256"
            },
            {
              "internalType": "uint256",
              "name": "acceptedProposalId",
              "type": "uint256"
            },
            {
              "internalType": "string",
              "name": "dataUri",
              "type": "string"
            },
            {
              "internalType": "uint256",
              "name": "transactionId",
              "type": "uint256"
            },
            {
              "internalType": "uint256",
              "name": "platformId",
              "type": "uint256"
            },
            {
              "internalType": "address",
              "name": "rateToken",
              "type": "address"
            },
            {
              "internalType": "uint256",
              "name": "referralAmount",
              "type": "uint256"
            }
          ],
          "internalType": "struct TalentLayerService.Service",
          "name": "",
          "type": "tuple"
        }
      ],
      "stateMutability": "view",
      "type": "function"
    },
    {
      "inputs": [
        {
          "internalType": "uint256",
          "name": "_serviceId",
          "type": "uint256"
        },
        {
          "internalType": "uint256",
          "name": "_proposalId",
          "type": "uint256"
        }
      ],
      "name": "getServiceAndProposal",
      "outputs": [
        {
          "components": [
            {
              "internalType": "enum TalentLayerService.Status",
              "name": "status",
              "type": "uint8"
            },
            {
              "internalType": "uint256",
              "name": "ownerId",
              "type": "uint256"
            },
            {
              "internalType": "uint256",
              "name": "acceptedProposalId",
              "type": "uint256"
            },
            {
              "internalType": "string",
              "name": "dataUri",
              "type": "string"
            },
            {
              "internalType": "uint256",
              "name": "transactionId",
              "type": "uint256"
            },
            {
              "internalType": "uint256",
              "name": "platformId",
              "type": "uint256"
            },
            {
              "internalType": "address",
              "name": "rateToken",
              "type": "address"
            },
            {
              "internalType": "uint256",
              "name": "referralAmount",
              "type": "uint256"
            }
          ],
          "internalType": "struct TalentLayerService.Service",
          "name": "",
          "type": "tuple"
        },
        {
          "components": [
            {
              "internalType": "enum TalentLayerService.ProposalStatus",
              "name": "status",
              "type": "uint8"
            },
            {
              "internalType": "uint256",
              "name": "ownerId",
              "type": "uint256"
            },
            {
              "internalType": "address",
              "name": "rateToken",
              "type": "address"
            },
            {
              "internalType": "uint256",
              "name": "rateAmount",
              "type": "uint256"
            },
            {
              "internalType": "uint256",
              "name": "platformId",
              "type": "uint256"
            },
            {
              "internalType": "string",
              "name": "dataUri",
              "type": "string"
            },
            {
              "internalType": "uint256",
              "name": "expirationDate",
              "type": "uint256"
            },
            {
              "internalType": "uint256",
              "name": "referrerId",
              "type": "uint256"
            }
          ],
          "internalType": "struct TalentLayerService.Proposal",
          "name": "",
          "type": "tuple"
        }
      ],
      "stateMutability": "view",
      "type": "function"
    },
    {
      "inputs": [
        {
          "internalType": "bytes32",
          "name": "role",
          "type": "bytes32"
        },
        {
          "internalType": "address",
          "name": "account",
          "type": "address"
        }
      ],
      "name": "grantRole",
      "outputs": [],
      "stateMutability": "nonpayable",
      "type": "function"
    },
    {
      "inputs": [
        {
          "internalType": "bytes32",
          "name": "role",
          "type": "bytes32"
        },
        {
          "internalType": "address",
          "name": "account",
          "type": "address"
        }
      ],
      "name": "hasRole",
      "outputs": [
        {
          "internalType": "bool",
          "name": "",
          "type": "bool"
        }
      ],
      "stateMutability": "view",
      "type": "function"
    },
    {
      "inputs": [
        {
          "internalType": "address",
          "name": "_talentLayerIdAddress",
          "type": "address"
        },
        {
          "internalType": "address",
          "name": "_talentLayerPlatformIdAddress",
          "type": "address"
        }
      ],
      "name": "initialize",
      "outputs": [],
      "stateMutability": "nonpayable",
      "type": "function"
    },
    {
      "inputs": [
        {
          "internalType": "address",
          "name": "_tokenAddress",
          "type": "address"
        }
      ],
      "name": "isTokenAllowed",
      "outputs": [
        {
          "internalType": "bool",
          "name": "",
          "type": "bool"
        }
      ],
      "stateMutability": "view",
      "type": "function"
    },
    {
      "inputs": [
        {
          "internalType": "address",
          "name": "forwarder",
          "type": "address"
        }
      ],
      "name": "isTrustedForwarder",
      "outputs": [
        {
          "internalType": "bool",
          "name": "",
          "type": "bool"
        }
      ],
      "stateMutability": "view",
      "type": "function"
    },
    {
      "inputs": [],
      "name": "minCompletionPercentage",
      "outputs": [
        {
          "internalType": "uint256",
          "name": "",
          "type": "uint256"
        }
      ],
      "stateMutability": "view",
      "type": "function"
    },
    {
      "inputs": [],
      "name": "nextServiceId",
      "outputs": [
        {
          "internalType": "uint256",
          "name": "",
          "type": "uint256"
        }
      ],
      "stateMutability": "view",
      "type": "function"
    },
    {
      "inputs": [],
      "name": "owner",
      "outputs": [
        {
          "internalType": "address",
          "name": "",
          "type": "address"
        }
      ],
      "stateMutability": "view",
      "type": "function"
    },
    {
      "inputs": [
        {
          "internalType": "uint256",
          "name": "",
          "type": "uint256"
        }
      ],
      "name": "proposalNonce",
      "outputs": [
        {
          "internalType": "uint256",
          "name": "",
          "type": "uint256"
        }
      ],
      "stateMutability": "view",
      "type": "function"
    },
    {
      "inputs": [
        {
          "internalType": "uint256",
          "name": "",
          "type": "uint256"
        },
        {
          "internalType": "uint256",
          "name": "",
          "type": "uint256"
        }
      ],
      "name": "proposals",
      "outputs": [
        {
          "internalType": "enum TalentLayerService.ProposalStatus",
          "name": "status",
          "type": "uint8"
        },
        {
          "internalType": "uint256",
          "name": "ownerId",
          "type": "uint256"
        },
        {
          "internalType": "address",
          "name": "rateToken",
          "type": "address"
        },
        {
          "internalType": "uint256",
          "name": "rateAmount",
          "type": "uint256"
        },
        {
          "internalType": "uint256",
          "name": "platformId",
          "type": "uint256"
        },
        {
          "internalType": "string",
          "name": "dataUri",
          "type": "string"
        },
        {
          "internalType": "uint256",
          "name": "expirationDate",
          "type": "uint256"
        },
        {
          "internalType": "uint256",
          "name": "referrerId",
          "type": "uint256"
        }
      ],
      "stateMutability": "view",
      "type": "function"
    },
    {
      "inputs": [],
      "name": "proxiableUUID",
      "outputs": [
        {
          "internalType": "bytes32",
          "name": "",
          "type": "bytes32"
        }
      ],
      "stateMutability": "view",
      "type": "function"
    },
    {
      "inputs": [
        {
          "internalType": "address",
          "name": "_forwarder",
          "type": "address"
        }
      ],
      "name": "removeTrustedForwarder",
      "outputs": [],
      "stateMutability": "nonpayable",
      "type": "function"
    },
    {
      "inputs": [],
      "name": "renounceOwnership",
      "outputs": [],
      "stateMutability": "nonpayable",
      "type": "function"
    },
    {
      "inputs": [
        {
          "internalType": "bytes32",
          "name": "role",
          "type": "bytes32"
        },
        {
          "internalType": "address",
          "name": "account",
          "type": "address"
        }
      ],
      "name": "renounceRole",
      "outputs": [],
      "stateMutability": "nonpayable",
      "type": "function"
    },
    {
      "inputs": [
        {
          "internalType": "bytes32",
          "name": "role",
          "type": "bytes32"
        },
        {
          "internalType": "address",
          "name": "account",
          "type": "address"
        }
      ],
      "name": "revokeRole",
      "outputs": [],
      "stateMutability": "nonpayable",
      "type": "function"
    },
    {
      "inputs": [
        {
          "internalType": "uint256",
          "name": "",
          "type": "uint256"
        }
      ],
      "name": "serviceNonce",
      "outputs": [
        {
          "internalType": "uint256",
          "name": "",
          "type": "uint256"
        }
      ],
      "stateMutability": "view",
      "type": "function"
    },
    {
      "inputs": [
        {
          "internalType": "uint256",
          "name": "",
          "type": "uint256"
        }
      ],
      "name": "services",
      "outputs": [
        {
          "internalType": "enum TalentLayerService.Status",
          "name": "status",
          "type": "uint8"
        },
        {
          "internalType": "uint256",
          "name": "ownerId",
          "type": "uint256"
        },
        {
          "internalType": "uint256",
          "name": "acceptedProposalId",
          "type": "uint256"
        },
        {
          "internalType": "string",
          "name": "dataUri",
          "type": "string"
        },
        {
          "internalType": "uint256",
          "name": "transactionId",
          "type": "uint256"
        },
        {
          "internalType": "uint256",
          "name": "platformId",
          "type": "uint256"
        },
        {
          "internalType": "address",
          "name": "rateToken",
          "type": "address"
        },
        {
          "internalType": "uint256",
          "name": "referralAmount",
          "type": "uint256"
        }
      ],
      "stateMutability": "view",
      "type": "function"
    },
    {
      "inputs": [
        {
          "internalType": "bytes4",
          "name": "interfaceId",
          "type": "bytes4"
        }
      ],
      "name": "supportsInterface",
      "outputs": [
        {
          "internalType": "bool",
          "name": "",
          "type": "bool"
        }
      ],
      "stateMutability": "view",
      "type": "function"
    },
    {
      "inputs": [],
      "name": "talentLayerPlatformIdContract",
      "outputs": [
        {
          "internalType": "contract ITalentLayerPlatformID",
          "name": "",
          "type": "address"
        }
      ],
      "stateMutability": "view",
      "type": "function"
    },
    {
      "inputs": [
        {
          "internalType": "address",
          "name": "newOwner",
          "type": "address"
        }
      ],
      "name": "transferOwnership",
      "outputs": [],
      "stateMutability": "nonpayable",
      "type": "function"
    },
    {
      "inputs": [
        {
          "internalType": "address",
          "name": "_tokenAddress",
          "type": "address"
        },
        {
          "internalType": "bool",
          "name": "_isWhitelisted",
          "type": "bool"
        },
        {
          "internalType": "uint256",
          "name": "_minimumTransactionAmount",
          "type": "uint256"
        }
      ],
      "name": "updateAllowedTokenList",
      "outputs": [],
      "stateMutability": "nonpayable",
      "type": "function"
    },
    {
      "inputs": [
        {
          "internalType": "uint256",
          "name": "_minCompletionPercentage",
          "type": "uint256"
        }
      ],
      "name": "updateMinCompletionPercentage",
      "outputs": [],
      "stateMutability": "nonpayable",
      "type": "function"
    },
    {
      "inputs": [
        {
          "internalType": "uint256",
          "name": "_profileId",
          "type": "uint256"
        },
        {
          "internalType": "uint256",
          "name": "_serviceId",
          "type": "uint256"
        },
        {
          "internalType": "uint256",
          "name": "_rateAmount",
          "type": "uint256"
        },
        {
          "internalType": "string",
          "name": "_dataUri",
          "type": "string"
        },
        {
          "internalType": "uint256",
          "name": "_expirationDate",
          "type": "uint256"
        },
        {
          "internalType": "uint256",
          "name": "_referrerId",
          "type": "uint256"
        }
      ],
      "name": "updateProposal",
      "outputs": [],
      "stateMutability": "nonpayable",
      "type": "function"
    },
    {
      "inputs": [
        {
          "internalType": "uint256",
          "name": "_profileId",
          "type": "uint256"
        },
        {
          "internalType": "uint256",
          "name": "_serviceId",
          "type": "uint256"
        },
        {
          "internalType": "uint256",
          "name": "_referralAmount",
          "type": "uint256"
        },
        {
          "internalType": "string",
          "name": "_dataUri",
          "type": "string"
        }
      ],
      "name": "updateService",
      "outputs": [],
      "stateMutability": "nonpayable",
      "type": "function"
    },
    {
      "inputs": [
        {
          "internalType": "address",
          "name": "newImplementation",
          "type": "address"
        }
      ],
      "name": "upgradeTo",
      "outputs": [],
      "stateMutability": "nonpayable",
      "type": "function"
    },
    {
      "inputs": [
        {
          "internalType": "address",
          "name": "newImplementation",
          "type": "address"
        },
        {
          "internalType": "bytes",
          "name": "data",
          "type": "bytes"
        }
      ],
      "name": "upgradeToAndCall",
      "outputs": [],
      "stateMutability": "payable",
      "type": "function"
    }
  ],
  "bytecode": "0x60a0604052306080523480156200001557600080fd5b506200002062000026565b620000e8565b600054610100900460ff1615620000935760405162461bcd60e51b815260206004820152602760248201527f496e697469616c697a61626c653a20636f6e747261637420697320696e697469604482015266616c697a696e6760c81b606482015260840160405180910390fd5b60005460ff9081161015620000e6576000805460ff191660ff9081179091556040519081527f7f26b83ff96e1f2b6a682f133852f6798a09c465da95921460cefb38474024989060200160405180910390a15b565b60805161469e620001206000396000818161102e0152818161106e015281816113250152818161136501526113f4015261469e6000f3fe6080604052600436106102305760003560e01c8063715018a61161012e578063c22c4f43116100ab578063ef0e239b1161006f578063ef0e239b1461072e578063f2fde38b1461075b578063f6c53d9b1461077b578063f9eaee0d14610792578063ff420375146107cc57600080fd5b8063c22c4f431461064a578063c2cfee271461067e578063ccaa7d2a146106b2578063d4eee1fc146106e0578063d547741f1461070e57600080fd5b8063a217fddf116100f2578063a217fddf146105b5578063a24bd889146105ca578063a7d5eaea146105dd578063aba21009146105fd578063b5735c1e1461062a57600080fd5b8063715018a6146104f057806371da85f9146105055780637c5a72cd146105575780638da5cb5b1461057757806391d148541461059557600080fd5b80632f2ff15d116101bc578063485cc95511610180578063485cc9551461043b5780634f1ef2861461045b57806352d1902d1461046e578063572b6c05146104835780636ce76f30146104bc57600080fd5b80632f2ff15d1461039b57806336568abe146103bb5780633659cfe6146103db5780633751d89c146103fb5780633ca2ad6f1461041b57600080fd5b8063156b39aa11610203578063156b39aa146102e55780631db087ff1461030a578063248a9ca31461033857806326d00668146103685780632afaf2201461038857600080fd5b806301ffc9a714610235578063089b7c731461026a5780631499f9e61461028c578063154664ed146102c5575b600080fd5b34801561024157600080fd5b50610255610250366004613872565b6107ec565b60405190151581526020015b60405180910390f35b34801561027657600080fd5b5061028a61028536600461389c565b610823565b005b34801561029857600080fd5b50610130546102ad906001600160a01b031681565b6040516001600160a01b039091168152602001610261565b3480156102d157600080fd5b5061028a6102e0366004613900565b6109c6565b3480156102f157600080fd5b506102fc6101365481565b604051908152602001610261565b34801561031657600080fd5b506102fc610325366004613970565b6101336020526000908152604090205481565b34801561034457600080fd5b506102fc610353366004613970565b600090815260fc602052604090206001015490565b34801561037457600080fd5b5061028a61038336600461399e565b610cde565b6102fc6103963660046139bb565b610d41565b3480156103a757600080fd5b5061028a6103b6366004613a5b565b610f6c565b3480156103c757600080fd5b5061028a6103d6366004613a5b565b610f96565b3480156103e757600080fd5b5061028a6103f636600461399e565b611024565b34801561040757600080fd5b5061028a61041636600461399e565b611103565b34801561042757600080fd5b5061028a610436366004613970565b61115c565b34801561044757600080fd5b5061028a610456366004613a8b565b6111a4565b61028a610469366004613acf565b61131b565b34801561047a57600080fd5b506102fc6113e7565b34801561048f57600080fd5b5061025561049e36600461399e565b6001600160a01b031660009081526065602052604090205460ff1690565b3480156104c857600080fd5b506102fc7f2fdac322ee704ce09f0773f7f3f92eb98d5e7c836ee9c056cccd5f61041e5e3f81565b3480156104fc57600080fd5b5061028a61149a565b34801561051157600080fd5b5061054061052036600461399e565b610135602052600090815260409020805460019091015460ff9091169082565b604080519215158352602083019190915201610261565b34801561056357600080fd5b5061028a610572366004613ba1565b6114ae565b34801561058357600080fd5b506033546001600160a01b03166102ad565b3480156105a157600080fd5b506102556105b0366004613a5b565b611583565b3480156105c157600080fd5b506102fc600081565b61028a6105d8366004613be2565b6115ae565b3480156105e957600080fd5b5061028a6105f8366004613c8f565b6119dc565b34801561060957600080fd5b5061061d61061836600461389c565b611a5e565b6040516102619190613dad565b34801561063657600080fd5b5061028a61064536600461389c565b611b9b565b34801561065657600080fd5b5061066a610665366004613970565b611c40565b604051610261989796959493929190613dd0565b34801561068a57600080fd5b5061069e61069936600461389c565b611d1d565b604051610261989796959493929190613e2e565b3480156106be57600080fd5b506102fc6106cd366004613970565b6101346020526000908152604090205481565b3480156106ec57600080fd5b506107006106fb36600461389c565b611e04565b604051610261929190613eff565b34801561071a57600080fd5b5061028a610729366004613a5b565b61207a565b34801561073a57600080fd5b5061074e610749366004613970565b61209f565b6040516102619190613f24565b34801561076757600080fd5b5061028a61077636600461399e565b61221f565b34801561078757600080fd5b506102fc61012e5481565b34801561079e57600080fd5b506102556107ad36600461399e565b6001600160a01b03166000908152610135602052604090205460ff1690565b3480156107d857600080fd5b5061028a6107e7366004613f37565b612295565b60006001600160e01b03198216637965db0b60e01b148061081d57506301ffc9a760e01b6001600160e01b03198316145b92915050565b61012f5482906001600160a01b0316632fa117e5826108406124bd565b6040516001600160e01b031960e085901b16815260048101929092526001600160a01b03166024820152604401602060405180830381865afa15801561088a573d6000803e3d6000fd5b505050506040513d601f19601f820116820180604052508101906108ae9190613f98565b6108d35760405162461bcd60e51b81526004016108ca90613fb5565b60405180910390fd5b600082815261013160205260409020600181015484146109255760405162461bcd60e51b815260206004820152600d60248201526c3737ba103a34329037bbb732b960991b60448201526064016108ca565b6000815460ff16600481111561093d5761093d613cbb565b146109825760405162461bcd60e51b81526020600482015260156024820152741cdd185d1d5cc81b5d5cdd081899481bdc195b9959605a1b60448201526064016108ca565b805460ff191660031781556040518381527f853aa4be1ac86f37acfc91d42b57f1fe895205aa6f8f9b7caa77ca257049ab1a9060200160405180910390a150505050565b61012f5487906001600160a01b0316632fa117e5826109e36124bd565b6040516001600160e01b031960e085901b16815260048101929092526001600160a01b03166024820152604401602060405180830381865afa158015610a2d573d6000803e3d6000fd5b505050506040513d601f19601f82011682018060405250810190610a519190613f98565b610a6d5760405162461bcd60e51b81526004016108ca90613fb5565b60008781526101316020908152604080832061013283528184208c855290925282209091825460ff166004811115610aa757610aa7613cbb565b14610ae95760405162461bcd60e51b815260206004820152601260248201527114d95c9d9a58d9481b9bdd081bdc195b995960721b60448201526064016108ca565b89816001015414610b2c5760405162461bcd60e51b815260206004820152600d60248201526c2737ba103a34329037bbb732b960991b60448201526064016108ca565b602e8614610b4c5760405162461bcd60e51b81526004016108ca90613fe4565b6001815460ff166001811115610b6457610b64613cbb565b03610ba55760405162461bcd60e51b8152602060048201526011602482015270105b1c9958591e481d985b1a59185d1959607a1b60448201526064016108ca565b60068201546001600160a01b031660009081526101356020526040902060010154881015610c065760405162461bcd60e51b815260206004820152600e60248201526d416d6f756e7420746f6f206c6f7760901b60448201526064016108ca565b8315610c695761012f5460405162f577a560e81b8152600481018690526001600160a01b039091169063f577a5009060240160006040518083038186803b158015610c5057600080fd5b505afa158015610c64573d6000803e3d6000fd5b505050505b6003810188905560058101610c7f878983614089565b5060068101859055600781018490556040517ffbfaa6f4e508bec40137ac265a7424e16a2d209355b2f4a35de5a80ba8fec1db90610cca908b908d908b908b908e908c908c90614173565b60405180910390a150505050505050505050565b610ce66124cc565b6001600160a01b038116600081815260656020908152604091829020805460ff1916600117905590519182527f3ef8564460ada92419608d823c014975d98f8104d7d1e68c222967ac6814cd9791015b60405180910390a150565b61012f5460009089906001600160a01b0316632fa117e582610d616124bd565b6040516001600160e01b031960e085901b16815260048101929092526001600160a01b03166024820152604401602060405180830381865afa158015610dab573d6000803e3d6000fd5b505050506040513d601f19601f82011682018060405250810190610dcf9190613f98565b610deb5760405162461bcd60e51b81526004016108ca90613fb5565b610dfa8a8a8a8a8a8a8a612545565b61012e80549081906000610e0d836141c8565b9091555050600081815261013160205260409020805460ff19168155600181018c905560038101610e3f8a8c83614089565b50600581018b90556006810180546001600160a01b0319166001600160a01b0388161790556007810185905560008c81526101336020526040902054158015610e95575060008c81526101346020526040902054155b15610efa5761012f546040516383ce205b60e01b8152600481018e90526001600160a01b03909116906383ce205b90602401600060405180830381600087803b158015610ee157600080fd5b505af1158015610ef5573d6000803e3d6000fd5b505050505b60008c815261013360205260408120805491610f15836141c8565b91905055507fe7f6435fc92b0ccd6f56395ae67b06f2cdb9680c0179f87f5821431304ad3f3e828d8d8d8d8b8b604051610f5597969594939291906141e1565b60405180910390a1509a9950505050505050505050565b600082815260fc6020526040902060010154610f878161274e565b610f91838361275f565b505050565b610f9e6124bd565b6001600160a01b0316816001600160a01b0316146110165760405162461bcd60e51b815260206004820152602f60248201527f416363657373436f6e74726f6c3a2063616e206f6e6c792072656e6f756e636560448201526e103937b632b9903337b91039b2b63360891b60648201526084016108ca565b61102082826127e6565b5050565b6001600160a01b037f000000000000000000000000000000000000000000000000000000000000000016300361106c5760405162461bcd60e51b81526004016108ca90614226565b7f00000000000000000000000000000000000000000000000000000000000000006001600160a01b03166110b5600080516020614622833981519152546001600160a01b031690565b6001600160a01b0316146110db5760405162461bcd60e51b81526004016108ca90614272565b6110e48161286b565b6040805160008082526020820190925261110091839190612873565b50565b61110b6124cc565b6001600160a01b038116600081815260656020908152604091829020805460ff1916905590519182527fd2d636efcad0cea42e170256f4c5d8b1cd81e47b855557edaf44014e6cc4cee69101610d36565b60006111678161274e565b6101368290556040518281527f577d7afcf67637a2f602cba220bbb292c1d715380dd011bfec748c3f641b2fd29060200160405180910390a15050565b600054610100900460ff16158080156111c45750600054600160ff909116105b806111de5750303b1580156111de575060005460ff166001145b6112415760405162461bcd60e51b815260206004820152602e60248201527f496e697469616c697a61626c653a20636f6e747261637420697320616c72656160448201526d191e481a5b9a5d1a585b1a5e995960921b60648201526084016108ca565b6000805460ff191660011790558015611264576000805461ff0019166101001790555b61126c6129de565b611274612a0d565b61127c612a0d565b61128e60006112896124bd565b612a34565b61012f80546001600160a01b038086166001600160a01b031992831617909255610130805492851692909116919091179055600161012e556112d0601e61115c565b8015610f91576000805461ff0019169055604051600181527f7f26b83ff96e1f2b6a682f133852f6798a09c465da95921460cefb3847402498906020015b60405180910390a1505050565b6001600160a01b037f00000000000000000000000000000000000000000000000000000000000000001630036113635760405162461bcd60e51b81526004016108ca90614226565b7f00000000000000000000000000000000000000000000000000000000000000006001600160a01b03166113ac600080516020614622833981519152546001600160a01b031690565b6001600160a01b0316146113d25760405162461bcd60e51b81526004016108ca90614272565b6113db8261286b565b61102082826001612873565b6000306001600160a01b037f000000000000000000000000000000000000000000000000000000000000000016146114875760405162461bcd60e51b815260206004820152603860248201527f555550535570677261646561626c653a206d757374206e6f742062652063616c60448201527f6c6564207468726f7567682064656c656761746563616c6c000000000000000060648201526084016108ca565b5060008051602061462283398151915290565b6114a26124cc565b6114ac6000612a3e565b565b6114b66124cc565b6001600160a01b0383161580156114cb575081155b156115185760405162461bcd60e51b815260206004820152601d60248201527f4f776e65722063616e27742072656d6f7665204f78206164647265737300000060448201526064016108ca565b6001600160a01b03831660008181526101356020908152604091829020805460ff19168615159081178255600190910185905582519384529083015281018290527f42b585a1da1cff4b571e7a78aea1b4601b1d128de41a0feebd8a77aaf48b9d889060600161130e565b600091825260fc602090815260408084206001600160a01b0393909316845291905290205460ff1690565b61012f548a906001600160a01b0316632fa117e5826115cb6124bd565b6040516001600160e01b031960e085901b16815260048101929092526001600160a01b03166024820152604401602060405180830381865afa158015611615573d6000803e3d6000fd5b505050506040513d601f19601f820116820180604052508101906116399190613f98565b6116555760405162461bcd60e51b81526004016108ca90613fb5565b60008a81526101316020526040808220815161010081019092528054829060ff16600481111561168757611687613cbb565b600481111561169857611698613cbb565b815260200160018201548152602001600282015481526020016003820180546116c090614009565b80601f01602080910402602001604051908101604052809291908181526020018280546116ec90614009565b80156117395780601f1061170e57610100808354040283529160200191611739565b820191906000526020600020905b81548152906001019060200180831161171c57829003601f168201915b5050509183525050600482015460208201526005820154604082015260068201546001600160a01b0316606082015260079091015460809091015290506117878c8c8c8c8c8c8b8b8b612a90565b60408051610100810190915280600081526020018d81526020018260c001516001600160a01b031681526020018b81526020018a815260200189898080601f016020809104026020016040519081016040528093929190818152602001838380828437600081840152601f19601f8201169050808301925050505050505081526020018781526020018481525061013260008d815260200190815260200160002060008e815260200190815260200160002060008201518160000160006101000a81548160ff0219169083600181111561186357611863613cbb565b02179055506020820151600182015560408201516002820180546001600160a01b0319166001600160a01b03909216919091179055606082015160038201556080820151600482015560a082015160058201906118c090826142be565b5060c0820151600682015560e09091015160079091015560008c81526101336020526040902054158015611901575060008c81526101346020526040902054155b156119665761012f546040516383ce205b60e01b8152600481018e90526001600160a01b03909116906383ce205b90602401600060405180830381600087803b15801561194d57600080fd5b505af1158015611961573d6000803e3d6000fd5b505050505b60008c815261013460205260408120805491611981836141c8565b91905055507fabd26455c3256ad90125661f4c1a4c16fecf585ccade21e749c56d8fd44bb1dd8b8d8a8a60008f8f8d8b6040516119c69998979695949392919061437e565b60405180910390a1505050505050505050505050565b7f2fdac322ee704ce09f0773f7f3f92eb98d5e7c836ee9c056cccd5f61041e5e3f611a068161274e565b60008481526101316020908152604080832061013283528184208785529092529091208154600160ff1991821681178455808301546002850155600484018690558254909183911682805b0217905550505050505050565b611a666137d4565b60008381526101326020908152604080832085845290915290819020815161010081019092528054829060ff166001811115611aa457611aa4613cbb565b6001811115611ab557611ab5613cbb565b81526001820154602082015260028201546001600160a01b03166040820152600382015460608201526004820154608082015260058201805460a090920191611afd90614009565b80601f0160208091040260200160405190810160405280929190818152602001828054611b2990614009565b8015611b765780601f10611b4b57610100808354040283529160200191611b76565b820191906000526020600020905b815481529060010190602001808311611b5957829003601f168201915b5050505050815260200160068201548152602001600782015481525050905092915050565b7f2fdac322ee704ce09f0773f7f3f92eb98d5e7c836ee9c056cccd5f61041e5e3f611bc58161274e565b6000838152610131602090815260408083206101328352818420600282015485529092528220600381015491929091611bff8660646143d5565b611c0991906143ec565b9050610136548110611c2557825460ff19166002178355611c38565b8254600490849060ff1916600183611a51565b505050505050565b61013160205260009081526040902080546001820154600283015460038401805460ff909416949293919291611c7590614009565b80601f0160208091040260200160405190810160405280929190818152602001828054611ca190614009565b8015611cee5780601f10611cc357610100808354040283529160200191611cee565b820191906000526020600020905b815481529060010190602001808311611cd157829003601f168201915b505050600484015460058501546006860154600790960154949591949093506001600160a01b03909116915088565b61013260209081526000928352604080842090915290825290208054600182015460028301546003840154600485015460058601805460ff9096169694956001600160a01b03909416949293919291611d7590614009565b80601f0160208091040260200160405190810160405280929190818152602001828054611da190614009565b8015611dee5780601f10611dc357610100808354040283529160200191611dee565b820191906000526020600020905b815481529060010190602001808311611dd157829003601f168201915b5050505050908060060154908060070154905088565b611e0c613823565b611e146137d4565b60008481526101316020526040808220815161010081019092528054829060ff166004811115611e4657611e46613cbb565b6004811115611e5757611e57613cbb565b81526020016001820154815260200160028201548152602001600382018054611e7f90614009565b80601f0160208091040260200160405190810160405280929190818152602001828054611eab90614009565b8015611ef85780601f10611ecd57610100808354040283529160200191611ef8565b820191906000526020600020905b815481529060010190602001808311611edb57829003601f168201915b50505091835250506004820154602080830191909152600583015460408084019190915260068401546001600160a01b03166060840152600790930154608090920191909152600088815261013282528281208882529091528181208251610100810190935280549394509092829060ff166001811115611f7b57611f7b613cbb565b6001811115611f8c57611f8c613cbb565b81526001820154602082015260028201546001600160a01b03166040820152600382015460608201526004820154608082015260058201805460a090920191611fd490614009565b80601f016020809104026020016040519081016040528092919081815260200182805461200090614009565b801561204d5780601f106120225761010080835404028352916020019161204d565b820191906000526020600020905b81548152906001019060200180831161203057829003601f168201915b505050918352505060068201546020820152600790910154604090910152919350909150505b9250929050565b600082815260fc60205260409020600101546120958161274e565b610f9183836127e6565b6120a7613823565b61012e5482106120f95760405162461bcd60e51b815260206004820152601a60248201527f54686973207365727669636520646f65736e277420657869737400000000000060448201526064016108ca565b6000828152610131602052604090819020815161010081019092528054829060ff16600481111561212c5761212c613cbb565b600481111561213d5761213d613cbb565b8152602001600182015481526020016002820154815260200160038201805461216590614009565b80601f016020809104026020016040519081016040528092919081815260200182805461219190614009565b80156121de5780601f106121b3576101008083540402835291602001916121de565b820191906000526020600020905b8154815290600101906020018083116121c157829003601f168201915b5050509183525050600482015460208201526005820154604082015260068201546001600160a01b0316606082015260079091015460809091015292915050565b6122276124cc565b6001600160a01b03811661228c5760405162461bcd60e51b815260206004820152602660248201527f4f776e61626c653a206e6577206f776e657220697320746865207a65726f206160448201526564647265737360d01b60648201526084016108ca565b61110081612a3e565b61012f5485906001600160a01b0316632fa117e5826122b26124bd565b6040516001600160e01b031960e085901b16815260048101929092526001600160a01b03166024820152604401602060405180830381865afa1580156122fc573d6000803e3d6000fd5b505050506040513d601f19601f820116820180604052508101906123209190613f98565b61233c5760405162461bcd60e51b81526004016108ca90613fb5565b6000858152610131602052604090206001810154871461238e5760405162461bcd60e51b815260206004820152600d60248201526c2737ba103a34329037bbb732b960991b60448201526064016108ca565b6000815460ff1660048111156123a6576123a6613cbb565b146123eb5760405162461bcd60e51b81526020600482015260156024820152741cdd185d1d5cc81b5d5cdd081899481bdc195b9959605a1b60448201526064016108ca565b602e831461240b5760405162461bcd60e51b81526004016108ca90613fe4565b806007015485101561245f5760405162461bcd60e51b815260206004820152601c60248201527f43616e27742072656475636520726566657272616c20616d6f756e740000000060448201526064016108ca565b6003810161246e848683614089565b50600781018590556040517fae55ce3c351e2400a1a143e7ed66668e581e1656ad1797a317e415d035880916906124ac908890879087908a9061440e565b60405180910390a150505050505050565b60006124c7612fb0565b905090565b6124d46124bd565b6001600160a01b03166124ef6033546001600160a01b031690565b6001600160a01b0316146114ac5760405162461bcd60e51b815260206004820181905260248201527f4f776e61626c653a2063616c6c6572206973206e6f7420746865206f776e657260448201526064016108ca565b61013054604051638a98636360e01b8152600481018890526000916001600160a01b031690638a98636390602401602060405180830381865afa158015612590573d6000803e3d6000fd5b505050506040513d601f19601f820116820180604052508101906125b49190614439565b90508034146125fa5760405162461bcd60e51b81526020600482015260126024820152714e6f6e2d6d61746368696e672066756e647360701b60448201526064016108ca565b602e851461261a5760405162461bcd60e51b81526004016108ca90613fe4565b6001600160a01b0382166000908152610135602052604090205460ff166126775760405162461bcd60e51b8152602060048201526011602482015270151bdad95b881b9bdd08185b1b1bddd959607a1b60448201526064016108ca565b61013054604051631fff7f2760e11b8152600481018990526000916001600160a01b031690633ffefe4e90602401602060405180830381865afa1580156126c2573d6000803e3d6000fd5b505050506040513d601f19601f820116820180604052508101906126e69190614452565b90506001600160a01b038116156127435760008981526101336020908152604080832054905161271d928d92918c918c910161446f565b60405160208183030381529060405280519060200120905061274186868385612fe9565b505b505050505050505050565b6111008161275a6124bd565b6130dd565b6127698282611583565b61102057600082815260fc602090815260408083206001600160a01b03851684529091529020805460ff191660011790556127a26124bd565b6001600160a01b0316816001600160a01b0316837f2f8788117e7eff1d82e926ec794901d17c78024a50270940304540a733656f0d60405160405180910390a45050565b6127f08282611583565b1561102057600082815260fc602090815260408083206001600160a01b03851684529091529020805460ff191690556128276124bd565b6001600160a01b0316816001600160a01b0316837ff6391f5c32d9c69d2a47ea670b442974b53935d1edc7fd64eb21e047a839171b60405160405180910390a45050565b6111006124cc565b7f4910fdfa16fed3260ed0e7147f7cc6da11a60208b5b9406d12a635614ffd91435460ff16156128a657610f9183613136565b826001600160a01b03166352d1902d6040518163ffffffff1660e01b8152600401602060405180830381865afa925050508015612900575060408051601f3d908101601f191682019092526128fd91810190614439565b60015b6129635760405162461bcd60e51b815260206004820152602e60248201527f45524331393637557067726164653a206e657720696d706c656d656e7461746960448201526d6f6e206973206e6f74205555505360901b60648201526084016108ca565b60008051602061462283398151915281146129d25760405162461bcd60e51b815260206004820152602960248201527f45524331393637557067726164653a20756e737570706f727465642070726f786044820152681a58589b195555525160ba1b60648201526084016108ca565b50610f918383836131d2565b600054610100900460ff16612a055760405162461bcd60e51b81526004016108ca906144b0565b6114ac6131fd565b600054610100900460ff166114ac5760405162461bcd60e51b81526004016108ca906144b0565b611020828261275f565b603380546001600160a01b038381166001600160a01b0319831681179093556040519116919082907f8be0079c531659141344cd1fd0a4f28419497f9722a3daafe3b4186f6b6457e090600090a35050565b61013054604051634a7ab1d560e01b8152600481018890526000916001600160a01b031690634a7ab1d590602401602060405180830381865afa158015612adb573d6000803e3d6000fd5b505050506040513d601f19601f82011682018060405250810190612aff9190614439565b9050803414612b455760405162461bcd60e51b81526020600482015260126024820152714e6f6e2d6d61746368696e672066756e647360701b60448201526064016108ca565b60008981526101316020526040808220815161010081019092528054829060ff166004811115612b7757612b77613cbb565b6004811115612b8857612b88613cbb565b81526020016001820154815260200160028201548152602001600382018054612bb090614009565b80601f0160208091040260200160405190810160405280929190818152602001828054612bdc90614009565b8015612c295780601f10612bfe57610100808354040283529160200191612c29565b820191906000526020600020905b815481529060010190602001808311612c0c57829003601f168201915b5050505050815260200160048201548152602001600582015481526020016006820160009054906101000a90046001600160a01b03166001600160a01b03166001600160a01b03168152602001600782015481525050905061013560008260c001516001600160a01b03166001600160a01b03168152602001908152602001600020600101548160e001518a612cbf91906144fb565b1015612cfe5760405162461bcd60e51b815260206004820152600e60248201526d416d6f756e7420746f6f206c6f7760901b60448201526064016108ca565b600081516004811115612d1357612d13613cbb565b14612d555760405162461bcd60e51b815260206004820152601260248201527114d95c9d9a58d9481b9bdd081bdc195b995960721b60448201526064016108ca565b8060200151600003612d9d5760405162461bcd60e51b815260206004820152601160248201527014d95c9d9a58d9481b9bdd08195e1a5cdd607a1b60448201526064016108ca565b60008a8152610132602090815260408083208e84529091529020600101548b9003612e035760405162461bcd60e51b81526020600482015260166024820152751c1c9bdc1bdcd85b08185b1c9958591e48195e1a5cdd60521b60448201526064016108ca565b8a816020015103612e605760405162461bcd60e51b815260206004820152602160248201527f63616e27742063726561746520666f7220796f7572206f776e207365727669636044820152606560f81b60648201526084016108ca565b602e8614612e805760405162461bcd60e51b81526004016108ca90613fe4565b61013054604051631fff7f2760e11b8152600481018a90526000916001600160a01b031690633ffefe4e90602401602060405180830381865afa158015612ecb573d6000803e3d6000fd5b505050506040513d601f19601f82011682018060405250810190612eef9190614452565b90506001600160a01b03811615612f3f5760008c8c8a8a604051602001612f19949392919061450e565b604051602081830303815290604052805190602001209050612f3d87878385612fe9565b505b8315612fa25761012f5460405162f577a560e81b8152600481018690526001600160a01b039091169063f577a5009060240160006040518083038186803b158015612f8957600080fd5b505afa158015612f9d573d6000803e3d6000fd5b505050505b505050505050505050505050565b600060143610801590612fd257503360009081526065602052604090205460ff165b15612fe4575060131936013560601c90565b503390565b6000613042836040517f19457468657265756d205369676e6564204d6573736167653a0a3332000000006020820152603c8101829052600090605c01604051602081830303815290604052805190602001209050919050565b905060006130868287878080601f01602080910402602001604051908101604052809392919081815260200183838082843760009201919091525061323492505050565b9050806001600160a01b0316836001600160a01b031614611c385760405162461bcd60e51b8152602060048201526011602482015270696e76616c6964207369676e617475726560781b60448201526064016108ca565b6130e78282611583565b611020576130f481613258565b6130ff83602061326a565b604051602001613110929190614550565b60408051601f198184030181529082905262461bcd60e51b82526108ca916004016145c5565b6001600160a01b0381163b6131a35760405162461bcd60e51b815260206004820152602d60248201527f455243313936373a206e657720696d706c656d656e746174696f6e206973206e60448201526c1bdd08184818dbdb9d1c9858dd609a1b60648201526084016108ca565b60008051602061462283398151915280546001600160a01b0319166001600160a01b0392909216919091179055565b6131db8361340d565b6000825111806131e85750805b15610f91576131f7838361344d565b50505050565b600054610100900460ff166132245760405162461bcd60e51b81526004016108ca906144b0565b6114ac61322f6124bd565b612a3e565b60008060006132438585613541565b9150915061325081613583565b509392505050565b606061081d6001600160a01b03831660145b606060006132798360026143d5565b6132849060026144fb565b67ffffffffffffffff81111561329c5761329c613ab9565b6040519080825280601f01601f1916602001820160405280156132c6576020820181803683370190505b509050600360fc1b816000815181106132e1576132e16145d8565b60200101906001600160f81b031916908160001a905350600f60fb1b81600181518110613310576133106145d8565b60200101906001600160f81b031916908160001a90535060006133348460026143d5565b61333f9060016144fb565b90505b60018111156133b7576f181899199a1a9b1b9c1cb0b131b232b360811b85600f1660108110613373576133736145d8565b1a60f81b828281518110613389576133896145d8565b60200101906001600160f81b031916908160001a90535060049490941c936133b0816145ee565b9050613342565b5083156134065760405162461bcd60e51b815260206004820181905260248201527f537472696e67733a20686578206c656e67746820696e73756666696369656e7460448201526064016108ca565b9392505050565b61341681613136565b6040516001600160a01b038216907fbc7cd75a20ee27fd9adebab32041f755214dbc6bffa90cc0225b39da2e5c2d3b90600090a250565b60606001600160a01b0383163b6134b55760405162461bcd60e51b815260206004820152602660248201527f416464726573733a2064656c65676174652063616c6c20746f206e6f6e2d636f6044820152651b9d1c9858dd60d21b60648201526084016108ca565b600080846001600160a01b0316846040516134d09190614605565b600060405180830381855af49150503d806000811461350b576040519150601f19603f3d011682016040523d82523d6000602084013e613510565b606091505b50915091506135388282604051806060016040528060278152602001614642602791396136cd565b95945050505050565b60008082516041036135775760208301516040840151606085015160001a61356b878285856136e6565b94509450505050612073565b50600090506002612073565b600081600481111561359757613597613cbb565b0361359f5750565b60018160048111156135b3576135b3613cbb565b036136005760405162461bcd60e51b815260206004820152601860248201527f45434453413a20696e76616c6964207369676e6174757265000000000000000060448201526064016108ca565b600281600481111561361457613614613cbb565b036136615760405162461bcd60e51b815260206004820152601f60248201527f45434453413a20696e76616c6964207369676e6174757265206c656e6774680060448201526064016108ca565b600381600481111561367557613675613cbb565b036111005760405162461bcd60e51b815260206004820152602260248201527f45434453413a20696e76616c6964207369676e6174757265202773272076616c604482015261756560f01b60648201526084016108ca565b606083156136dc575081613406565b61340683836137aa565b6000807f7fffffffffffffffffffffffffffffff5d576e7357a4501ddfe92f46681b20a083111561371d57506000905060036137a1565b6040805160008082526020820180845289905260ff881692820192909252606081018690526080810185905260019060a0016020604051602081039080840390855afa158015613771573d6000803e3d6000fd5b5050604051601f1901519150506001600160a01b03811661379a576000600192509250506137a1565b9150600090505b94509492505050565b8151156137ba5781518083602001fd5b8060405162461bcd60e51b81526004016108ca91906145c5565b60408051610100810190915280600081526020016000815260200160006001600160a01b0316815260200160008152602001600081526020016060815260200160008152602001600081525090565b6040805161010081019091528060008152602001600081526020016000815260200160608152602001600081526020016000815260200160006001600160a01b03168152602001600081525090565b60006020828403121561388457600080fd5b81356001600160e01b03198116811461340657600080fd5b600080604083850312156138af57600080fd5b50508035926020909101359150565b60008083601f8401126138d057600080fd5b50813567ffffffffffffffff8111156138e857600080fd5b60208301915083602082850101111561207357600080fd5b600080600080600080600060c0888a03121561391b57600080fd5b873596506020880135955060408801359450606088013567ffffffffffffffff81111561394757600080fd5b6139538a828b016138be565b989b979a50959895979660808701359660a0013595509350505050565b60006020828403121561398257600080fd5b5035919050565b6001600160a01b038116811461110057600080fd5b6000602082840312156139b057600080fd5b813561340681613989565b60008060008060008060008060c0898b0312156139d757600080fd5b8835975060208901359650604089013567ffffffffffffffff808211156139fd57600080fd5b613a098c838d016138be565b909850965060608b0135915080821115613a2257600080fd5b50613a2f8b828c016138be565b9095509350506080890135613a4381613989565b8092505060a089013590509295985092959890939650565b60008060408385031215613a6e57600080fd5b823591506020830135613a8081613989565b809150509250929050565b60008060408385031215613a9e57600080fd5b8235613aa981613989565b91506020830135613a8081613989565b634e487b7160e01b600052604160045260246000fd5b60008060408385031215613ae257600080fd5b8235613aed81613989565b9150602083013567ffffffffffffffff80821115613b0a57600080fd5b818501915085601f830112613b1e57600080fd5b813581811115613b3057613b30613ab9565b604051601f8201601f19908116603f01168101908382118183101715613b5857613b58613ab9565b81604052828152886020848701011115613b7157600080fd5b8260208601602083013760006020848301015280955050505050509250929050565b801515811461110057600080fd5b600080600060608486031215613bb657600080fd5b8335613bc181613989565b92506020840135613bd181613b93565b929592945050506040919091013590565b6000806000806000806000806000806101008b8d031215613c0257600080fd5b8a35995060208b0135985060408b0135975060608b0135965060808b013567ffffffffffffffff80821115613c3657600080fd5b613c428e838f016138be565b909850965060a08d0135955060c08d0135915080821115613c6257600080fd5b50613c6f8d828e016138be565b9150809450508092505060e08b013590509295989b9194979a5092959850565b600080600060608486031215613ca457600080fd5b505081359360208301359350604090920135919050565b634e487b7160e01b600052602160045260246000fd5b60028110613ce157613ce1613cbb565b9052565b60005b83811015613d00578181015183820152602001613ce8565b50506000910152565b60008151808452613d21816020860160208601613ce5565b601f01601f19169290920160200192915050565b6000610100613d45848451613cd1565b6020830151602085015260018060a01b036040840151166040850152606083015160608501526080830151608085015260a08301518160a0860152613d8c82860182613d09565b91505060c083015160c085015260e083015160e08501528091505092915050565b6020815260006134066020830184613d35565b60058110613ce157613ce1613cbb565b6000610100613ddf838c613dc0565b896020840152886040840152806060840152613dfd81840189613d09565b6080840197909752505060a08101939093526001600160a01b039190911660c083015260e090910152949350505050565b6000610100613e3d838c613cd1565b89602084015260018060a01b03891660408401528760608401528660808401528060a0840152613e6f81840187613d09565b60c0840195909552505060e001529695505050505050565b6000610100613e97848451613dc0565b60208301516020850152604083015160408501526060830151816060860152613ec282860182613d09565b6080858101519087015260a0808601519087015260c0808601516001600160a01b03169087015260e0948501519490950193909352509192915050565b604081526000613f126040830185613e87565b82810360208401526135388185613d35565b6020815260006134066020830184613e87565b600080600080600060808688031215613f4f57600080fd5b853594506020860135935060408601359250606086013567ffffffffffffffff811115613f7b57600080fd5b613f87888289016138be565b969995985093965092949392505050565b600060208284031215613faa57600080fd5b815161340681613b93565b6020808252601590820152744e6f74206f776e6572206f722064656c656761746560581b604082015260600190565b6020808252600b908201526a125b9d985b1a590818da5960aa1b604082015260600190565b600181811c9082168061401d57607f821691505b60208210810361403d57634e487b7160e01b600052602260045260246000fd5b50919050565b601f821115610f9157600081815260208120601f850160051c8101602086101561406a5750805b601f850160051c820191505b81811015611c3857828155600101614076565b67ffffffffffffffff8311156140a1576140a1613ab9565b6140b5836140af8354614009565b83614043565b6000601f8411600181146140e957600085156140d15750838201355b600019600387901b1c1916600186901b178355614143565b600083815260209020601f19861690835b8281101561411a57868501358255602094850194600190920191016140fa565b50868210156141375760001960f88860031b161c19848701351681555b505060018560011b0183555b5050505050565b81835281816020850137506000828201602090810191909152601f909101601f19169091010190565b87815286602082015260c06040820152600061419360c08301878961414a565b606083019590955250608081019290925260a090910152949350505050565b634e487b7160e01b600052601160045260246000fd5b6000600182016141da576141da6141b2565b5060010190565b87815286602082015285604082015260c06060820152600061420760c08301868861414a565b6001600160a01b039490941660808301525060a0015295945050505050565b6020808252602c908201527f46756e6374696f6e206d7573742062652063616c6c6564207468726f7567682060408201526b19195b1959d85d1958d85b1b60a21b606082015260800190565b6020808252602c908201527f46756e6374696f6e206d7573742062652063616c6c6564207468726f7567682060408201526b6163746976652070726f787960a01b606082015260800190565b815167ffffffffffffffff8111156142d8576142d8613ab9565b6142ec816142e68454614009565b84614043565b602080601f83116001811461432157600084156143095750858301515b600019600386901b1c1916600185901b178555611c38565b600085815260208120601f198616915b8281101561435057888601518255948401946001909101908401614331565b508582101561436e5787850151600019600388901b60f8161c191681555b5050505050600190811b01905550565b60006101008b83528a602084015280604084015261439f8184018a8c61414a565b9150506143af6060830188613cd1565b8560808301528460a08301528360c08301528260e08301529a9950505050505050505050565b808202811582820484141761081d5761081d6141b2565b60008261440957634e487b7160e01b600052601260045260246000fd5b500490565b84815260606020820152600061442860608301858761414a565b905082604083015295945050505050565b60006020828403121561444b57600080fd5b5051919050565b60006020828403121561446457600080fd5b815161340681613989565b6c6372656174655365727669636560981b815284600d820152603b60f81b602d82015283602e8201528183604e83013760009101604e019081529392505050565b6020808252602b908201527f496e697469616c697a61626c653a20636f6e7472616374206973206e6f74206960408201526a6e697469616c697a696e6760a81b606082015260800190565b8082018082111561081d5761081d6141b2565b6d18dc99585d19541c9bdc1bdcd85b60921b815284600e820152603b60f81b602e82015283602f8201528183604f83013760009101604f019081529392505050565b7f416363657373436f6e74726f6c3a206163636f756e7420000000000000000000815260008351614588816017850160208801613ce5565b7001034b99036b4b9b9b4b733903937b6329607d1b60179184019182015283516145b9816028840160208801613ce5565b01602801949350505050565b6020815260006134066020830184613d09565b634e487b7160e01b600052603260045260246000fd5b6000816145fd576145fd6141b2565b506000190190565b60008251614617818460208701613ce5565b919091019291505056fe360894a13ba1a3210667c828492db98dca3e2076cc3735a920a3ca505d382bbc416464726573733a206c6f772d6c6576656c2064656c65676174652063616c6c206661696c6564a26469706673582212204101a0ea1f12070439ff1321a6a5682dbe115cfb89975139083fc58ba5f80b4864736f6c63430008110033",
  "linkReferences": {},
  "deployedLinkReferences": {}
}