{
  "_format": "hh-sol-artifact-1",
  "contractName": "TalentLayerEscrow",
  "sourceName": "contracts/TalentLayerEscrow.sol",
  "abi": [
    {
      "inputs": [],
      "stateMutability": "nonpayable",
      "type": "constructor"
    },
    {
      "anonymous": false,
      "inputs": [
        {
          "indexed": false,
          "internalType": "address",
          "name": "previousAdmin",
          "type": "address"
        },
        {
          "indexed": false,
          "internalType": "address",
          "name": "newAdmin",
          "type": "address"
        }
      ],
      "name": "AdminChanged",
      "type": "event"
    },
    {
      "anonymous": false,
      "inputs": [
        {
          "indexed": true,
          "internalType": "uint256",
          "name": "_transactionId",
          "type": "uint256"
        },
        {
          "indexed": false,
          "internalType": "enum TalentLayerEscrow.ArbitrationFeePaymentType",
          "name": "_paymentType",
          "type": "uint8"
        },
        {
          "indexed": false,
          "internalType": "enum TalentLayerEscrow.Party",
          "name": "_party",
          "type": "uint8"
        },
        {
          "indexed": false,
          "internalType": "uint256",
          "name": "_amount",
          "type": "uint256"
        }
      ],
      "name": "ArbitrationFeePayment",
      "type": "event"
    },
    {
      "anonymous": false,
      "inputs": [
        {
          "indexed": true,
          "internalType": "address",
          "name": "beacon",
          "type": "address"
        }
      ],
      "name": "BeaconUpgraded",
      "type": "event"
    },
    {
      "anonymous": false,
      "inputs": [
        {
          "indexed": true,
          "internalType": "contract Arbitrator",
          "name": "_arbitrator",
          "type": "address"
        },
        {
          "indexed": true,
          "internalType": "uint256",
          "name": "_disputeID",
          "type": "uint256"
        },
        {
          "indexed": false,
          "internalType": "uint256",
          "name": "_metaEvidenceID",
          "type": "uint256"
        },
        {
          "indexed": false,
          "internalType": "uint256",
          "name": "_evidenceGroupID",
          "type": "uint256"
        }
      ],
      "name": "Dispute",
      "type": "event"
    },
    {
      "anonymous": false,
      "inputs": [
        {
          "indexed": true,
          "internalType": "contract Arbitrator",
          "name": "_arbitrator",
          "type": "address"
        },
        {
          "indexed": true,
          "internalType": "uint256",
          "name": "_evidenceGroupID",
          "type": "uint256"
        },
        {
          "indexed": true,
          "internalType": "address",
          "name": "_party",
          "type": "address"
        },
        {
          "indexed": false,
          "internalType": "string",
          "name": "_evidence",
          "type": "string"
        }
      ],
      "name": "Evidence",
      "type": "event"
    },
    {
      "anonymous": false,
      "inputs": [
        {
          "indexed": true,
          "internalType": "uint256",
          "name": "_transactionId",
          "type": "uint256"
        },
        {
          "indexed": true,
          "internalType": "uint256",
          "name": "_partyId",
          "type": "uint256"
        },
        {
          "indexed": false,
          "internalType": "string",
          "name": "_evidenceUri",
          "type": "string"
        }
      ],
      "name": "EvidenceSubmitted",
      "type": "event"
    },
    {
      "anonymous": false,
      "inputs": [
        {
          "indexed": false,
          "internalType": "uint256",
          "name": "_platformId",
          "type": "uint256"
        },
        {
          "indexed": true,
          "internalType": "address",
          "name": "_token",
          "type": "address"
        },
        {
          "indexed": false,
          "internalType": "uint256",
          "name": "_amount",
          "type": "uint256"
        }
      ],
      "name": "FeesClaimed",
      "type": "event"
    },
    {
      "anonymous": false,
      "inputs": [
        {
          "indexed": true,
          "internalType": "uint256",
          "name": "_transactionId",
          "type": "uint256"
        },
        {
          "indexed": false,
          "internalType": "enum TalentLayerEscrow.Party",
          "name": "_party",
          "type": "uint8"
        }
      ],
      "name": "HasToPayFee",
      "type": "event"
    },
    {
      "anonymous": false,
      "inputs": [
        {
          "indexed": false,
          "internalType": "uint8",
          "name": "version",
          "type": "uint8"
        }
      ],
      "name": "Initialized",
      "type": "event"
    },
    {
      "anonymous": false,
      "inputs": [
        {
          "indexed": true,
          "internalType": "uint256",
          "name": "_metaEvidenceID",
          "type": "uint256"
        },
        {
          "indexed": false,
          "internalType": "string",
          "name": "_evidence",
          "type": "string"
        }
      ],
      "name": "MetaEvidence",
      "type": "event"
    },
    {
      "anonymous": false,
      "inputs": [
        {
          "indexed": false,
          "internalType": "uint256",
          "name": "_platformId",
          "type": "uint256"
        },
        {
          "indexed": false,
          "internalType": "uint256",
          "name": "_serviceId",
          "type": "uint256"
        },
        {
          "indexed": true,
          "internalType": "address",
          "name": "_token",
          "type": "address"
        },
        {
          "indexed": false,
          "internalType": "uint256",
          "name": "_amount",
          "type": "uint256"
        }
      ],
      "name": "OriginServiceFeeRateReleased",
      "type": "event"
    },
    {
      "anonymous": false,
      "inputs": [
        {
          "indexed": false,
          "internalType": "uint256",
          "name": "_platformId",
          "type": "uint256"
        },
        {
          "indexed": false,
          "internalType": "uint256",
          "name": "_serviceId",
          "type": "uint256"
        },
        {
          "indexed": true,
          "internalType": "address",
          "name": "_token",
          "type": "address"
        },
        {
          "indexed": false,
          "internalType": "uint256",
          "name": "_amount",
          "type": "uint256"
        }
      ],
      "name": "OriginValidatedProposalFeeRateReleased",
      "type": "event"
    },
    {
      "anonymous": false,
      "inputs": [
        {
          "indexed": true,
          "internalType": "address",
          "name": "previousOwner",
          "type": "address"
        },
        {
          "indexed": true,
          "internalType": "address",
          "name": "newOwner",
          "type": "address"
        }
      ],
      "name": "OwnershipTransferred",
      "type": "event"
    },
    {
      "anonymous": false,
      "inputs": [
        {
          "indexed": false,
          "internalType": "address",
          "name": "account",
          "type": "address"
        }
      ],
      "name": "Paused",
      "type": "event"
    },
    {
      "anonymous": false,
      "inputs": [
        {
          "indexed": false,
          "internalType": "uint256",
          "name": "_transactionId",
          "type": "uint256"
        },
        {
          "indexed": false,
          "internalType": "enum TalentLayerEscrow.PaymentType",
          "name": "_paymentType",
          "type": "uint8"
        },
        {
          "indexed": false,
          "internalType": "address",
          "name": "_token",
          "type": "address"
        },
        {
          "indexed": false,
          "internalType": "uint256",
          "name": "_amount",
          "type": "uint256"
        },
        {
          "indexed": false,
          "internalType": "uint256",
          "name": "_serviceId",
          "type": "uint256"
        },
        {
          "indexed": false,
          "internalType": "uint256",
          "name": "_proposalId",
          "type": "uint256"
        }
      ],
      "name": "Payment",
      "type": "event"
    },
    {
      "anonymous": false,
      "inputs": [
        {
          "indexed": false,
          "internalType": "uint256",
          "name": "_serviceId",
          "type": "uint256"
        }
      ],
      "name": "PaymentCompleted",
      "type": "event"
    },
    {
      "anonymous": false,
      "inputs": [
        {
          "indexed": false,
          "internalType": "uint16",
          "name": "_protocolEscrowFeeRate",
          "type": "uint16"
        }
      ],
      "name": "ProtocolEscrowFeeRateUpdated",
      "type": "event"
    },
    {
      "anonymous": false,
      "inputs": [
        {
          "indexed": false,
          "internalType": "uint256",
          "name": "_referrerId",
          "type": "uint256"
        },
        {
          "indexed": true,
          "internalType": "address",
          "name": "_token",
          "type": "address"
        },
        {
          "indexed": false,
          "internalType": "uint256",
          "name": "_amount",
          "type": "uint256"
        }
      ],
      "name": "ReferralAmountClaimed",
      "type": "event"
    },
    {
      "anonymous": false,
      "inputs": [
        {
          "indexed": true,
          "internalType": "uint256",
          "name": "_referrerId",
          "type": "uint256"
        },
        {
          "indexed": false,
          "internalType": "uint256",
          "name": "_serviceId",
          "type": "uint256"
        },
        {
          "indexed": true,
          "internalType": "address",
          "name": "_token",
          "type": "address"
        },
        {
          "indexed": false,
          "internalType": "uint256",
          "name": "_amount",
          "type": "uint256"
        }
      ],
      "name": "ReferralAmountReleased",
      "type": "event"
    },
    {
      "anonymous": false,
      "inputs": [
        {
          "indexed": true,
          "internalType": "contract Arbitrator",
          "name": "_arbitrator",
          "type": "address"
        },
        {
          "indexed": true,
          "internalType": "uint256",
          "name": "_disputeID",
          "type": "uint256"
        },
        {
          "indexed": false,
          "internalType": "uint256",
          "name": "_ruling",
          "type": "uint256"
        }
      ],
      "name": "Ruling",
      "type": "event"
    },
    {
      "anonymous": false,
      "inputs": [
        {
          "indexed": true,
          "internalType": "uint256",
          "name": "_transactionId",
          "type": "uint256"
        },
        {
          "indexed": false,
          "internalType": "uint256",
          "name": "_ruling",
          "type": "uint256"
        }
      ],
      "name": "RulingExecuted",
      "type": "event"
    },
    {
      "anonymous": false,
      "inputs": [
        {
          "indexed": false,
          "internalType": "uint256",
          "name": "_transactionId",
          "type": "uint256"
        },
        {
          "indexed": false,
          "internalType": "uint256",
          "name": "_senderId",
          "type": "uint256"
        },
        {
          "indexed": false,
          "internalType": "uint256",
          "name": "_receiverId",
          "type": "uint256"
        },
        {
          "indexed": false,
          "internalType": "address",
          "name": "_token",
          "type": "address"
        },
        {
          "indexed": false,
          "internalType": "uint256",
          "name": "_amount",
          "type": "uint256"
        },
        {
          "indexed": false,
          "internalType": "uint256",
          "name": "_serviceId",
          "type": "uint256"
        },
        {
          "indexed": false,
          "internalType": "uint256",
          "name": "_proposalId",
          "type": "uint256"
        },
        {
          "indexed": false,
          "internalType": "uint16",
          "name": "_protocolEscrowFeeRate",
          "type": "uint16"
        },
        {
          "indexed": false,
          "internalType": "uint16",
          "name": "_originServiceFeeRate",
          "type": "uint16"
        },
        {
          "indexed": false,
          "internalType": "uint16",
          "name": "_originValidatedProposalFeeRate",
          "type": "uint16"
        },
        {
          "indexed": false,
          "internalType": "contract Arbitrator",
          "name": "_arbitrator",
          "type": "address"
        },
        {
          "indexed": false,
          "internalType": "bytes",
          "name": "_arbitratorExtraData",
          "type": "bytes"
        },
        {
          "indexed": false,
          "internalType": "uint256",
          "name": "_arbitrationFeeTimeout",
          "type": "uint256"
        }
      ],
      "name": "TransactionCreated",
      "type": "event"
    },
    {
      "anonymous": false,
      "inputs": [
        {
          "indexed": false,
          "internalType": "address",
          "name": "forwarder",
          "type": "address"
        }
      ],
      "name": "TrustedForwarderAdded",
      "type": "event"
    },
    {
      "anonymous": false,
      "inputs": [
        {
          "indexed": false,
          "internalType": "address",
          "name": "forwarder",
          "type": "address"
        }
      ],
      "name": "TrustedForwarderRemoved",
      "type": "event"
    },
    {
      "anonymous": false,
      "inputs": [
        {
          "indexed": false,
          "internalType": "address",
          "name": "account",
          "type": "address"
        }
      ],
      "name": "Unpaused",
      "type": "event"
    },
    {
      "anonymous": false,
      "inputs": [
        {
          "indexed": true,
          "internalType": "address",
          "name": "implementation",
          "type": "address"
        }
      ],
      "name": "Upgraded",
      "type": "event"
    },
    {
      "inputs": [
        {
          "internalType": "address",
          "name": "_forwarder",
          "type": "address"
        }
      ],
      "name": "addTrustedForwarder",
      "outputs": [],
      "stateMutability": "nonpayable",
      "type": "function"
    },
    {
      "inputs": [
        {
          "internalType": "uint256",
          "name": "_transactionId",
          "type": "uint256"
        }
      ],
      "name": "appeal",
      "outputs": [],
      "stateMutability": "payable",
      "type": "function"
    },
    {
      "inputs": [
        {
          "internalType": "uint256",
          "name": "_transactionId",
          "type": "uint256"
        }
      ],
      "name": "arbitrationFeeTimeout",
      "outputs": [],
      "stateMutability": "nonpayable",
      "type": "function"
    },
    {
      "inputs": [
        {
          "internalType": "uint256",
          "name": "_platformId",
          "type": "uint256"
        },
        {
          "internalType": "address",
          "name": "_tokenAddress",
          "type": "address"
        }
      ],
      "name": "claim",
      "outputs": [],
      "stateMutability": "nonpayable",
      "type": "function"
    },
    {
      "inputs": [
        {
          "internalType": "uint256",
          "name": "_referrerId",
          "type": "uint256"
        },
        {
          "internalType": "address",
          "name": "_tokenAddress",
          "type": "address"
        }
      ],
      "name": "claimReferralBalance",
      "outputs": [],
      "stateMutability": "nonpayable",
      "type": "function"
    },
    {
      "inputs": [
        {
          "internalType": "uint256",
          "name": "_serviceId",
          "type": "uint256"
        },
        {
          "internalType": "uint256",
          "name": "_proposalId",
          "type": "uint256"
        },
        {
          "internalType": "string",
          "name": "_metaEvidence",
          "type": "string"
        },
        {
          "internalType": "string",
          "name": "_originDataUri",
          "type": "string"
        }
      ],
      "name": "createTransaction",
      "outputs": [
        {
          "internalType": "uint256",
          "name": "",
          "type": "uint256"
        }
      ],
      "stateMutability": "payable",
      "type": "function"
    },
    {
      "inputs": [
        {
          "internalType": "uint256",
          "name": "",
          "type": "uint256"
        }
      ],
      "name": "disputeIDtoTransactionID",
      "outputs": [
        {
          "internalType": "uint256",
          "name": "",
          "type": "uint256"
        }
      ],
      "stateMutability": "view",
      "type": "function"
    },
    {
      "inputs": [
        {
          "internalType": "address",
          "name": "_token",
          "type": "address"
        }
      ],
      "name": "getClaimableFeeBalance",
      "outputs": [
        {
          "internalType": "uint256",
          "name": "balance",
          "type": "uint256"
        }
      ],
      "stateMutability": "view",
      "type": "function"
    },
    {
      "inputs": [
        {
          "internalType": "address",
          "name": "_token",
          "type": "address"
        }
      ],
      "name": "getClaimableReferralBalance",
      "outputs": [
        {
          "internalType": "uint256",
          "name": "balance",
          "type": "uint256"
        }
      ],
      "stateMutability": "view",
      "type": "function"
    },
    {
      "inputs": [
        {
          "internalType": "uint256",
          "name": "_transactionId",
          "type": "uint256"
        }
      ],
      "name": "getTransactionDetails",
      "outputs": [
        {
          "components": [
            {
              "internalType": "uint256",
              "name": "id",
              "type": "uint256"
            },
            {
              "internalType": "address",
              "name": "sender",
              "type": "address"
            },
            {
              "internalType": "address",
              "name": "receiver",
              "type": "address"
            },
            {
              "internalType": "address",
              "name": "token",
              "type": "address"
            },
            {
              "internalType": "uint256",
              "name": "amount",
              "type": "uint256"
            },
            {
              "internalType": "uint256",
              "name": "releasedAmount",
              "type": "uint256"
            },
            {
              "internalType": "uint256",
              "name": "serviceId",
              "type": "uint256"
            },
            {
              "internalType": "uint256",
              "name": "proposalId",
              "type": "uint256"
            },
            {
              "internalType": "uint16",
              "name": "protocolEscrowFeeRate",
              "type": "uint16"
            },
            {
              "internalType": "uint16",
              "name": "originServiceFeeRate",
              "type": "uint16"
            },
            {
              "internalType": "uint16",
              "name": "originValidatedProposalFeeRate",
              "type": "uint16"
            },
            {
              "internalType": "contract Arbitrator",
              "name": "arbitrator",
              "type": "address"
            },
            {
              "internalType": "enum TalentLayerEscrow.Status",
              "name": "status",
              "type": "uint8"
            },
            {
              "internalType": "uint256",
              "name": "disputeId",
              "type": "uint256"
            },
            {
              "internalType": "uint256",
              "name": "senderFee",
              "type": "uint256"
            },
            {
              "internalType": "uint256",
              "name": "receiverFee",
              "type": "uint256"
            },
            {
              "internalType": "uint256",
              "name": "lastInteraction",
              "type": "uint256"
            },
            {
              "internalType": "bytes",
              "name": "arbitratorExtraData",
              "type": "bytes"
            },
            {
              "internalType": "uint256",
              "name": "arbitrationFeeTimeout",
              "type": "uint256"
            },
            {
              "internalType": "uint256",
              "name": "referrerId",
              "type": "uint256"
            },
            {
              "internalType": "uint256",
              "name": "referralAmount",
              "type": "uint256"
            },
            {
              "internalType": "uint256",
              "name": "totalAmount",
              "type": "uint256"
            }
          ],
          "internalType": "struct TalentLayerEscrow.Transaction",
          "name": "",
          "type": "tuple"
        }
      ],
      "stateMutability": "view",
      "type": "function"
    },
    {
      "inputs": [
        {
          "internalType": "address",
          "name": "_talentLayerServiceAddress",
          "type": "address"
        },
        {
          "internalType": "address",
          "name": "_talentLayerIDAddress",
          "type": "address"
        },
        {
          "internalType": "address",
          "name": "_talentLayerPlatformIDAddress",
          "type": "address"
        },
        {
          "internalType": "address",
          "name": "_protocolWallet",
          "type": "address"
        }
      ],
      "name": "initialize",
      "outputs": [],
      "stateMutability": "nonpayable",
      "type": "function"
    },
    {
      "inputs": [
        {
          "internalType": "address",
          "name": "forwarder",
          "type": "address"
        }
      ],
      "name": "isTrustedForwarder",
      "outputs": [
        {
          "internalType": "bool",
          "name": "",
          "type": "bool"
        }
      ],
      "stateMutability": "view",
      "type": "function"
    },
    {
      "inputs": [],
      "name": "owner",
      "outputs": [
        {
          "internalType": "address",
          "name": "",
          "type": "address"
        }
      ],
      "stateMutability": "view",
      "type": "function"
    },
    {
      "inputs": [],
      "name": "pause",
      "outputs": [],
      "stateMutability": "nonpayable",
      "type": "function"
    },
    {
      "inputs": [],
      "name": "paused",
      "outputs": [
        {
          "internalType": "bool",
          "name": "",
          "type": "bool"
        }
      ],
      "stateMutability": "view",
      "type": "function"
    },
    {
      "inputs": [
        {
          "internalType": "uint256",
          "name": "_transactionId",
          "type": "uint256"
        }
      ],
      "name": "payArbitrationFeeByReceiver",
      "outputs": [],
      "stateMutability": "payable",
      "type": "function"
    },
    {
      "inputs": [
        {
          "internalType": "uint256",
          "name": "_transactionId",
          "type": "uint256"
        }
      ],
      "name": "payArbitrationFeeBySender",
      "outputs": [],
      "stateMutability": "payable",
      "type": "function"
    },
    {
      "inputs": [],
      "name": "protocolEscrowFeeRate",
      "outputs": [
        {
          "internalType": "uint16",
          "name": "",
          "type": "uint16"
        }
      ],
      "stateMutability": "view",
      "type": "function"
    },
    {
      "inputs": [],
      "name": "protocolWallet",
      "outputs": [
        {
          "internalType": "address payable",
          "name": "",
          "type": "address"
        }
      ],
      "stateMutability": "view",
      "type": "function"
    },
    {
      "inputs": [],
      "name": "proxiableUUID",
      "outputs": [
        {
          "internalType": "bytes32",
          "name": "",
          "type": "bytes32"
        }
      ],
      "stateMutability": "view",
      "type": "function"
    },
    {
      "inputs": [
        {
          "internalType": "uint256",
          "name": "_profileId",
          "type": "uint256"
        },
        {
          "internalType": "uint256",
          "name": "_transactionId",
          "type": "uint256"
        },
        {
          "internalType": "uint256",
          "name": "_amount",
          "type": "uint256"
        }
      ],
      "name": "reimburse",
      "outputs": [],
      "stateMutability": "nonpayable",
      "type": "function"
    },
    {
      "inputs": [
        {
          "internalType": "uint256",
          "name": "_profileId",
          "type": "uint256"
        },
        {
          "internalType": "uint256",
          "name": "_transactionId",
          "type": "uint256"
        },
        {
          "internalType": "uint256",
          "name": "_amount",
          "type": "uint256"
        }
      ],
      "name": "release",
      "outputs": [],
      "stateMutability": "nonpayable",
      "type": "function"
    },
    {
      "inputs": [
        {
          "internalType": "address",
          "name": "_forwarder",
          "type": "address"
        }
      ],
      "name": "removeTrustedForwarder",
      "outputs": [],
      "stateMutability": "nonpayable",
      "type": "function"
    },
    {
      "inputs": [],
      "name": "renounceOwnership",
      "outputs": [],
      "stateMutability": "nonpayable",
      "type": "function"
    },
    {
      "inputs": [
        {
          "internalType": "uint256",
          "name": "_disputeID",
          "type": "uint256"
        },
        {
          "internalType": "uint256",
          "name": "_ruling",
          "type": "uint256"
        }
      ],
      "name": "rule",
      "outputs": [],
      "stateMutability": "nonpayable",
      "type": "function"
    },
    {
      "inputs": [
        {
          "internalType": "uint256",
          "name": "_profileId",
          "type": "uint256"
        },
        {
          "internalType": "uint256",
          "name": "_transactionId",
          "type": "uint256"
        },
        {
          "internalType": "string",
          "name": "_evidence",
          "type": "string"
        }
      ],
      "name": "submitEvidence",
      "outputs": [],
      "stateMutability": "nonpayable",
      "type": "function"
    },
    {
      "inputs": [
        {
          "internalType": "address",
          "name": "newOwner",
          "type": "address"
        }
      ],
      "name": "transferOwnership",
      "outputs": [],
      "stateMutability": "nonpayable",
      "type": "function"
    },
    {
      "inputs": [],
      "name": "unpause",
      "outputs": [],
      "stateMutability": "nonpayable",
      "type": "function"
    },
    {
      "inputs": [
        {
          "internalType": "uint16",
          "name": "_protocolEscrowFeeRate",
          "type": "uint16"
        }
      ],
      "name": "updateProtocolEscrowFeeRate",
      "outputs": [],
      "stateMutability": "nonpayable",
      "type": "function"
    },
    {
      "inputs": [
        {
          "internalType": "address payable",
          "name": "_protocolWallet",
          "type": "address"
        }
      ],
      "name": "updateProtocolWallet",
      "outputs": [],
      "stateMutability": "nonpayable",
      "type": "function"
    },
    {
      "inputs": [
        {
          "internalType": "address",
          "name": "newImplementation",
          "type": "address"
        }
      ],
      "name": "upgradeTo",
      "outputs": [],
      "stateMutability": "nonpayable",
      "type": "function"
    },
    {
      "inputs": [
        {
          "internalType": "address",
          "name": "newImplementation",
          "type": "address"
        },
        {
          "internalType": "bytes",
          "name": "data",
          "type": "bytes"
        }
      ],
      "name": "upgradeToAndCall",
      "outputs": [],
      "stateMutability": "payable",
      "type": "function"
    }
  ],
  "bytecode": "0x60a0604052306080523480156200001557600080fd5b506200002062000026565b620000e8565b600054610100900460ff1615620000935760405162461bcd60e51b815260206004820152602760248201527f496e697469616c697a61626c653a20636f6e747261637420697320696e697469604482015266616c697a696e6760c81b606482015260840160405180910390fd5b60005460ff9081161015620000e6576000805460ff191660ff9081179091556040519081527f7f26b83ff96e1f2b6a682f133852f6798a09c465da95921460cefb38474024989060200160405180910390a15b565b60805161552c62000120600039600081816116390152818161167901528181611a4201528181611a820152611b11015261552c6000f3fe6080604052600436106101e35760003560e01c80635c0cd1e2116101025780638da5cb5b11610095578063e308a09911610064578063e308a09914610579578063eb63612d14610599578063f2fde38b146105b9578063f8c8765e146105d957600080fd5b80638da5cb5b146104fb5780639dcc5daf14610519578063d299630f14610539578063ddd5e1b21461055957600080fd5b80637b44cdb5116100d15780637b44cdb5146104a05780637e69b7b0146104b35780638456cb59146104c65780638b69fa0a146104db57600080fd5b80635c0cd1e2146104405780635c975abb146104605780636e72b45214610478578063715018a61461048b57600080fd5b80633751d89c1161017a5780634f1ef286116101495780634f1ef2861461039957806352d1902d146103ac578063572b6c05146103c15780635a34257a1461040a57600080fd5b80633751d89c146103245780633a1121cd146103445780633ab4a6a4146103645780633f4ba83a1461038457600080fd5b806326d00668116101b657806326d00668146102945780632fbe3b03146102b6578063311a6c56146102e45780633659cfe61461030457600080fd5b806306d6e63f146101e85780630a1a47d6146102265780630fa683d31461025457806315734fe714610281575b600080fd5b3480156101f457600080fd5b5061010154610209906001600160a01b031681565b6040516001600160a01b0390911681526020015b60405180910390f35b34801561023257600080fd5b506102466102413660046145c6565b6105f9565b60405190815260200161021d565b34801561026057600080fd5b5061027461026f3660046145e3565b610765565b60405161021d9190614676565b61024661028f366004614913565b610ae6565b3480156102a057600080fd5b506102b46102af3660046145c6565b61145d565b005b3480156102c257600080fd5b506102466102d13660046145e3565b6101026020526000908152604090205481565b3480156102f057600080fd5b506102b46102ff36600461498a565b6114c0565b34801561031057600080fd5b506102b461031f3660046145c6565b61162f565b34801561033057600080fd5b506102b461033f3660046145c6565b61170e565b34801561035057600080fd5b506102b461035f3660046149ac565b611767565b34801561037057600080fd5b506102b461037f3660046145e3565b611870565b34801561039057600080fd5b506102b4611a26565b6102b46103a73660046149d8565b611a38565b3480156103b857600080fd5b50610246611b04565b3480156103cd57600080fd5b506103fa6103dc3660046145c6565b6001600160a01b031660009081526065602052604090205460ff1690565b604051901515815260200161021d565b34801561041657600080fd5b506101015461042d90600160a01b900461ffff1681565b60405161ffff909116815260200161021d565b34801561044c57600080fd5b5061024661045b3660046145c6565b611bb7565b34801561046c57600080fd5b5060665460ff166103fa565b6102b46104863660046145e3565b611c6a565b34801561049757600080fd5b506102b4611f03565b6102b46104ae3660046145e3565b611f15565b6102b46104c13660046145e3565b61218f565b3480156104d257600080fd5b506102b4612247565b3480156104e757600080fd5b506102b46104f6366004614a3c565b612257565b34801561050757600080fd5b506033546001600160a01b0316610209565b34801561052557600080fd5b506102b46105343660046149ac565b6125ba565b34801561054557600080fd5b506102b4610554366004614a8c565b6126a8565b34801561056557600080fd5b506102b4610574366004614a8c565b61285a565b34801561058557600080fd5b506102b46105943660046145c6565b612a65565b3480156105a557600080fd5b506102b46105b4366004614acc565b612a90565b3480156105c557600080fd5b506102b46105d43660046145c6565b612ae9565b3480156105e557600080fd5b506102b46105f4366004614ae9565b612b5f565b600080610604612ce0565b9050806001600160a01b03166106226033546001600160a01b031690565b6001600160a01b03160361066c5750506001600160a01b031660009081527fc34a738ec333e394a3927794cadc6dd0eb7d9eed0999d1e55021ea223ac362cc602052604090205490565b61010054604051631847c06b60e01b81526001600160a01b0383811660048301526000921690631847c06b90602401602060405180830381865afa1580156106b8573d6000803e3d6000fd5b505050506040513d601f19601f820116820180604052508101906106dc9190614b45565b6101005460405162f577a560e81b8152600481018390529192506001600160a01b03169063f577a5009060240160006040518083038186803b15801561072157600080fd5b505afa158015610735573d6000803e3d6000fd5b50505060009182525060fd602090815260408083206001600160a01b039096168352949052929092205492915050565b610814604080516102c081018252600080825260208201819052918101829052606081018290526080810182905260a0810182905260c0810182905260e0810182905261010081018290526101208101829052610140810182905261016081018290529061018082019081526020016000815260200160008152602001600081526020016000815260200160608152602001600081526020016000815260200160008152602001600081525090565b600082815260fc6020908152604080832081516102c0810183528154815260018201546001600160a01b039081169482019490945260028201548416928101929092526003810154831660608301526004808201546080840152600582015460a0840152600682015460c0840152600782015460e0840152600882015461ffff8082166101008601526201000082048116610120860152640100000000820416610140850152600160301b810490941661016084015291929091610180840191600160d01b900460ff16908111156108ee576108ee6145fc565b60048111156108ff576108ff6145fc565b815260200160098201548152602001600a8201548152602001600b8201548152602001600c8201548152602001600d8201805461093b90614b5e565b80601f016020809104026020016040519081016040528092919081815260200182805461096790614b5e565b80156109b45780601f10610989576101008083540402835291602001916109b4565b820191906000526020600020905b81548152906001019060200180831161099757829003601f168201915b50505050508152602001600e8201548152602001600f82015481526020016010820154815260200160118201548152505090506109f16101035490565b815110610a3e5760405162461bcd60e51b8152602060048201526016602482015275125b9d985b1a59081d1c985b9cd858dd1a5bdb881a5960521b60448201526064015b60405180910390fd5b6000610a48612ce0565b905081602001516001600160a01b0316816001600160a01b03161480610a83575081604001516001600160a01b0316816001600160a01b0316145b610adf5760405162461bcd60e51b815260206004820152602760248201527f596f7520617265206e6f742072656c6174656420746f2074686973207472616e60448201526639b0b1ba34b7b760c91b6064820152608401610a35565b5092915050565b6000610af0612cef565b60fe5460405163353bb87f60e21b8152600481018790526024810186905260009182916001600160a01b039091169063d4eee1fc90604401600060405180830381865afa158015610b45573d6000803e3d6000fd5b505050506040513d6000823e601f3d908101601f19168201604052610b6d9190810190614ca8565b60ff54602083810151908301516040516303ef723760e61b81526004810192909252602482015292945090925060009182916001600160a01b03169063fbdc8dc0906044016040805180830381865afa158015610bce573d6000803e3d6000fd5b505050506040513d601f19601f82011682018060405250810190610bf29190614d87565b6101005460a0870151604051630b7a459360e31b815260048101919091529294509092506000916001600160a01b0390911690635bd22c9890602401600060405180830381865afa158015610c4b573d6000803e3d6000fd5b505050506040513d6000823e601f3d908101601f19168201604052610c739190810190614dc1565b9050600084608001518660a0015103610c8c5781610d09565b610100546080860151604051630b7a459360e31b81526001600160a01b0390921691635bd22c9891610cc49160040190815260200190565b600060405180830381865afa158015610ce1573d6000803e3d6000fd5b505050506040513d6000823e601f3d908101601f19168201604052610d099190810190614dc1565b905060008560e00151600014610d23578660e00151610d26565b60005b90506000610d4287606001518560600151856080015185612d35565b60c08901519091506001600160a01b0316610da057803414610d9b5760405162461bcd60e51b81526020600482015260126024820152714e6f6e2d6d61746368696e672066756e647360701b6044820152606401610a35565b610de3565b3415610de35760405162461bcd60e51b81526020600482015260126024820152714e6f6e2d6d61746368696e672066756e647360701b6044820152606401610a35565b856001600160a01b0316610df5612ce0565b6001600160a01b031614610e1b5760405162461bcd60e51b8152600401610a3590614eed565b8b876020015114610e665760405162461bcd60e51b8152602060048201526015602482015274125b98dbdc9c9958dd081c1c9bdc1bdcd85b081251605a1b6044820152606401610a35565b428760c001511015610ead5760405162461bcd60e51b815260206004820152601060248201526f141c9bdc1bdcd85b08195e1c1a5c995960821b6044820152606401610a35565b600088516004811115610ec257610ec26145fc565b14610f0f5760405162461bcd60e51b815260206004820152601760248201527f5365727669636520737461747573206e6f74206f70656e0000000000000000006044820152606401610a35565b600087516001811115610f2457610f246145fc565b14610f715760405162461bcd60e51b815260206004820152601b60248201527f50726f706f73616c20737461747573206e6f742070656e64696e6700000000006044820152606401610a35565b8a51602e14610fb05760405162461bcd60e51b815260206004820152600b60248201526a125b9d985b1a590818da5960aa1b6044820152606401610a35565b89604051602001610fc19190614f14565b604051602081830303815290604052805190602001208760a00151604051602001610fec9190614f14565b604051602081830303815290604052805190602001201461104f5760405162461bcd60e51b815260206004820152601c60248201527f50726f706f73616c206461746155726920686173206368616e676564000000006044820152606401610a35565b600061105b6101035490565b9050604051806102c00160405280828152602001886001600160a01b03168152602001876001600160a01b031681526020018a60c001516001600160a01b0316815260200189606001518152602001600081526020018f81526020018e815260200161010160149054906101000a900461ffff1661ffff168152602001866060015161ffff168152602001856080015161ffff1681526020018660e001516001600160a01b031681526020016000600481111561111a5761111a6145fc565b8152602001600081526020016000815260200160008152602001428152602001866101000151815260200186610120015181526020018960e0015181526020018a60e001518152602001896060015181525060fc60008381526020019081526020016000206000820151816000015560208201518160010160006101000a8154816001600160a01b0302191690836001600160a01b0316021790555060408201518160020160006101000a8154816001600160a01b0302191690836001600160a01b0316021790555060608201518160030160006101000a8154816001600160a01b0302191690836001600160a01b031602179055506080820151816004015560a0820151816005015560c0820151816006015560e082015181600701556101008201518160080160006101000a81548161ffff021916908361ffff1602179055506101208201518160080160026101000a81548161ffff021916908361ffff1602179055506101408201518160080160046101000a81548161ffff021916908361ffff1602179055506101608201518160080160066101000a8154816001600160a01b0302191690836001600160a01b0316021790555061018082015181600801601a6101000a81548160ff021916908360048111156112fd576112fd6145fc565b02179055506101a082015160098201556101c0820151600a8201556101e0820151600b820155610200820151600c820155610220820151600d8201906113439082614f76565b50610240820151600e820155610260820151600f82015561028082015160108201556102a09091015160119091015561138161010380546001019055565b60fe60009054906101000a90046001600160a01b03166001600160a01b031663a7d5eaea8f8f846040518463ffffffff1660e01b81526004016113d7939291909283526020830191909152604082015260600190565b600060405180830381600087803b1580156113f157600080fd5b505af1158015611405573d6000803e3d6000fd5b5050505060c08901516001600160a01b0316156114365760c0890151611436906001600160a01b0316883085612dae565b61144a89602001518960200151838f612e0e565b985050505050505050505b949350505050565b611465612f29565b6001600160a01b038116600081815260656020908152604091829020805460ff1916600117905590519182527f3ef8564460ada92419608d823c014975d98f8104d7d1e68c222967ac6814cd9791015b60405180910390a150565b60006114ca612ce0565b6000848152610102602090815260408083205480845260fc909252909120600881015492935090916001600160a01b03808516600160301b909204161461155d5760405162461bcd60e51b815260206004820152602160248201527f5468652063616c6c6572206d757374206265207468652061726269747261746f6044820152603960f91b6064820152608401610a35565b60036008820154600160d01b900460ff16600481111561157f5761157f6145fc565b146115da5760405162461bcd60e51b815260206004820152602560248201527f54686520646973707574652068617320616c7265616479206265656e207265736044820152641bdb1d995960da1b6064820152608401610a35565b84836001600160a01b03167f394027a5fa6e098a1191094d1719d6929b9abc535fcc0c8f448d6a4e756222768660405161161691815260200190565b60405180910390a36116288285612fa2565b5050505050565b6001600160a01b037f00000000000000000000000000000000000000000000000000000000000000001630036116775760405162461bcd60e51b8152600401610a3590615036565b7f00000000000000000000000000000000000000000000000000000000000000006001600160a01b03166116c0600080516020615490833981519152546001600160a01b031690565b6001600160a01b0316146116e65760405162461bcd60e51b8152600401610a3590615082565b6116ef8161322c565b6040805160008082526020820190925261170b91839190613234565b50565b611716612f29565b6001600160a01b038116600081815260656020908152604091829020805460ff1916905590519182527fd2d636efcad0cea42e170256f4c5d8b1cd81e47b855557edaf44014e6cc4cee691016114b5565b61176f612cef565b60ff5483906001600160a01b0316632fa117e58261178b612ce0565b6040516001600160e01b031960e085901b16815260048101929092526001600160a01b03166024820152604401602060405180830381865afa1580156117d5573d6000803e3d6000fd5b505050506040513d601f19601f820116820180604052508101906117f991906150ce565b6118155760405162461bcd60e51b8152600401610a35906150f0565b611822836000868561339f565b600083815260fc6020526040812060048101805491928592611845908490615135565b92505081905550828160050160008282546118609190615148565b909155506116289050848461368a565b600081815260fc60205260409020600e810154600c8201546118929042615135565b10156118e05760405162461bcd60e51b815260206004820152601f60248201527f54696d656f75742074696d6520686173206e6f742070617373656420796574006044820152606401610a35565b60016008820154600160d01b900460ff166004811115611902576119026145fc565b0361198557600a8101541561197657600a81018054600091829055600183015460405191926001600160a01b0390911691839181818185875af1925050503d806000811461196c576040519150601f19603f3d011682016040523d82523d6000602084013e611971565b606091505b505050505b611981826002612fa2565b5050565b60026008820154600160d01b900460ff1660048111156119a7576119a76145fc565b0361198157600b81015415611a1b57600b81018054600091829055600283015460405191926001600160a01b0390911691839181818185875af1925050503d8060008114611a11576040519150601f19603f3d011682016040523d82523d6000602084013e611a16565b606091505b505050505b611981826001612fa2565b611a2e612f29565b611a366136cf565b565b6001600160a01b037f0000000000000000000000000000000000000000000000000000000000000000163003611a805760405162461bcd60e51b8152600401610a3590615036565b7f00000000000000000000000000000000000000000000000000000000000000006001600160a01b0316611ac9600080516020615490833981519152546001600160a01b031690565b6001600160a01b031614611aef5760405162461bcd60e51b8152600401610a3590615082565b611af88261322c565b61198182826001613234565b6000306001600160a01b037f00000000000000000000000000000000000000000000000000000000000000001614611ba45760405162461bcd60e51b815260206004820152603860248201527f555550535570677261646561626c653a206d757374206e6f742062652063616c60448201527f6c6564207468726f7567682064656c656761746563616c6c00000000000000006064820152608401610a35565b5060008051602061549083398151915290565b60ff5460009081906001600160a01b0316631847c06b611bd5612ce0565b6040516001600160e01b031960e084901b1681526001600160a01b039091166004820152602401602060405180830381865afa158015611c19573d6000803e3d6000fd5b505050506040513d601f19601f82011682018060405250810190611c3d9190614b45565b6000908152610104602090815260408083206001600160a01b039096168352949052929092205492915050565b600081815260fc602052604090206008810154600160301b90046001600160a01b0316611ca95760405162461bcd60e51b8152600401610a359061515b565b60036008820154600160d01b900460ff166004811115611ccb57611ccb6145fc565b10611ce85760405162461bcd60e51b8152600401610a3590615187565b60028101546001600160a01b0316611cfe612ce0565b6001600160a01b031614611d545760405162461bcd60e51b815260206004820152601f60248201527f5468652063616c6c6572206d75737420626520746865207265636569766572006044820152606401610a35565b600881015460405163f7434ea960e01b8152600091600160301b90046001600160a01b03169063f7434ea990611d9190600d860190600401615277565b602060405180830381865afa158015611dae573d6000803e3d6000fd5b505050506040513d601f19601f82011682018060405250810190611dd29190614b45565b90503482600b016000828254611de89190615148565b9091555050600b8201548114611e5f5760405162461bcd60e51b815260206004820152603660248201527f54686520726563656976657220666565206d75737420626520657175616c20746044820152751bc81d1a1948185c989a5d1c985d1a5bdb8818dbdcdd60521b6064820152608401610a35565b42600c83015560405183906000805160206154b083398151915290611e8b90600090600190349061529a565b60405180910390a28082600a01541015611ef45760088201805460ff60d01b1916600160d01b17905560405183907fc74b9f7dedf2887cd3c113b6d8da9cea19e55c1116e25f1f0e1b72d7543179b590611ee7906000906152c4565b60405180910390a2505050565b611efe8382613727565b505050565b611f0b612f29565b611a36600061397a565b600081815260fc602052604090206008810154600160301b90046001600160a01b0316611f545760405162461bcd60e51b8152600401610a359061515b565b60036008820154600160d01b900460ff166004811115611f7657611f766145fc565b10611f935760405162461bcd60e51b8152600401610a3590615187565b60018101546001600160a01b0316611fa9612ce0565b6001600160a01b031614611fff5760405162461bcd60e51b815260206004820152601d60248201527f5468652063616c6c6572206d757374206265207468652073656e6465720000006044820152606401610a35565b600881015460405163f7434ea960e01b8152600091600160301b90046001600160a01b03169063f7434ea99061203c90600d860190600401615277565b602060405180830381865afa158015612059573d6000803e3d6000fd5b505050506040513d601f19601f8201168201806040525081019061207d9190614b45565b90503482600a0160008282546120939190615148565b9091555050600a82015481146121085760405162461bcd60e51b815260206004820152603460248201527f5468652073656e64657220666565206d75737420626520657175616c20746f206044820152731d1a1948185c989a5d1c985d1a5bdb8818dbdcdd60621b6064820152608401610a35565b42600c83015560405183906000805160206154b083398151915290612133906000908190349061529a565b60405180910390a28082600b01541015611ef45760088201805460ff60d01b1916600160d11b17905560405183907fc74b9f7dedf2887cd3c113b6d8da9cea19e55c1116e25f1f0e1b72d7543179b590611ee7906001906152c4565b600081815260fc602052604090206008810154600160301b90046001600160a01b03166121ce5760405162461bcd60e51b8152600401610a359061515b565b6008810154600982015460405163093225f160e31b8152600160301b9092046001600160a01b0316916349912f889134916122119190600d8701906004016152d7565b6000604051808303818588803b15801561222a57600080fd5b505af115801561223e573d6000803e3d6000fd5b50505050505050565b61224f612f29565b611a366139cc565b60ff5483906001600160a01b0316632fa117e582612273612ce0565b6040516001600160e01b031960e085901b16815260048101929092526001600160a01b03166024820152604401602060405180830381865afa1580156122bd573d6000803e3d6000fd5b505050506040513d601f19601f820116820180604052508101906122e191906150ce565b6122fd5760405162461bcd60e51b8152600401610a35906150f0565b8151602e1461233c5760405162461bcd60e51b815260206004820152600b60248201526a125b9d985b1a590818da5960aa1b6044820152606401610a35565b600083815260fc602052604090206008810154600160301b90046001600160a01b031661237b5760405162461bcd60e51b8152600401610a359061515b565b60ff546040516331a9108f60e11b8152600481018790526000916001600160a01b031690636352211e90602401602060405180830381865afa1580156123c5573d6000803e3d6000fd5b505050506040513d601f19601f820116820180604052508101906123e991906152f0565b60018301549091506001600160a01b0380831691161480612419575060028201546001600160a01b038281169116145b61248d576040805162461bcd60e51b81526020600482015260248101919091527f5468652063616c6c6572206d757374206265207468652073656e646572206f7260448201527f20746865207265636569766572206f722074686569722064656c6567617465736064820152608401610a35565b60046008830154600160d01b900460ff1660048111156124af576124af6145fc565b106125165760405162461bcd60e51b815260206004820152603160248201527f4d757374206e6f742073656e642065766964656e6365206966207468652064696044820152701cdc1d5d19481a5cc81c995cdbdb1d9959607a1b6064820152608401610a35565b806001600160a01b0316858360080160069054906101000a90046001600160a01b03166001600160a01b03167fdccf2f8b2cc26eafcd61905cba744cff4b81d14740725f6376390dc6298a6a3c87604051612571919061530d565b60405180910390a485857fd998ce0f89c38b0f93256f0b843a404a3a3c5055b75265623f7cb9c369a1dd62866040516125aa919061530d565b60405180910390a3505050505050565b6125c2612cef565b60ff5483906001600160a01b0316632fa117e5826125de612ce0565b6040516001600160e01b031960e085901b16815260048101929092526001600160a01b03166024820152604401602060405180830381865afa158015612628573d6000803e3d6000fd5b505050506040513d601f19601f8201168201806040525081019061264c91906150ce565b6126685760405162461bcd60e51b8152600401610a35906150f0565b612675836001868561339f565b600083815260fc6020526040812060048101805491928592612698908490615135565b9091555061162890508484613a0a565b6126b0612cef565b60ff5460405162f577a560e81b8152600481018490526000916001600160a01b03169063f577a5009060240160006040518083038186803b1580156126f457600080fd5b505afa158015612708573d6000803e3d6000fd5b505060ff546040516331a9108f60e11b8152600481018790526001600160a01b039091169250636352211e9150602401602060405180830381865afa158015612755573d6000803e3d6000fd5b505050506040513d601f19601f8201168201806040525081019061277991906152f0565b6000848152610104602090815260408083206001600160a01b0387168452909152902054909150806127e05760405162461bcd60e51b815260206004820152601060248201526f6e6f7468696e6720746f20636c61696d60801b6044820152606401610a35565b6000848152610104602090815260408083206001600160a01b038716845290915281205561280f828483613aa7565b60408051858152602081018390526001600160a01b038516917ff7c8cc6f18f75645957886fe11026a08ce70f199ba95cbb33ddd4064aa85203991015b60405180910390a250505050565b612862612cef565b600061286c612ce0565b6001600160a01b03166128876033546001600160a01b031690565b6001600160a01b0316036128c65782156128b35760405162461bcd60e51b8152600401610a3590614eed565b50610101546001600160a01b0316612993565b6101005460405162f577a560e81b8152600481018590526001600160a01b039091169063f577a5009060240160006040518083038186803b15801561290a57600080fd5b505afa15801561291e573d6000803e3d6000fd5b5050610100546040516331a9108f60e11b8152600481018790526001600160a01b039091169250636352211e9150602401602060405180830381865afa15801561296c573d6000803e3d6000fd5b505050506040513d601f19601f8201168201806040525081019061299091906152f0565b90505b600083815260fd602090815260408083206001600160a01b0386168452909152902054806129f65760405162461bcd60e51b815260206004820152601060248201526f6e6f7468696e6720746f20636c61696d60801b6044820152606401610a35565b600084815260fd602090815260408083206001600160a01b0387168452909152812055612a24828483613aa7565b60408051858152602081018390526001600160a01b038516917f2227733fc4c8a9034cb58087dcf6995128b9c0233b038b03366aaf30c92b92d6910161284c565b612a6d612f29565b61010180546001600160a01b0319166001600160a01b0392909216919091179055565b612a98612f29565b610101805461ffff60a01b1916600160a01b61ffff8416908102919091179091556040519081527f8339189e972f7fba792126e752aa8485af08710bce4a041c5bc3f9858acd7130906020016114b5565b612af1612f29565b6001600160a01b038116612b565760405162461bcd60e51b815260206004820152602660248201527f4f776e61626c653a206e6577206f776e657220697320746865207a65726f206160448201526564647265737360d01b6064820152608401610a35565b61170b8161397a565b600054610100900460ff1615808015612b7f5750600054600160ff909116105b80612b995750303b158015612b99575060005460ff166001145b612bfc5760405162461bcd60e51b815260206004820152602e60248201527f496e697469616c697a61626c653a20636f6e747261637420697320616c72656160448201526d191e481a5b9a5d1a585b1a5e995960921b6064820152608401610a35565b6000805460ff191660011790558015612c1f576000805461ff0019166101001790555b612c27613b81565b612c2f613bb0565b60fe80546001600160a01b038088166001600160a01b03199283161790925560ff80548784169083161790556101008054868416908316179055610101805492851692909116919091179055612c8a61010380546001019055565b612c946064612a90565b8015611628576000805461ff0019169055604051600181527f7f26b83ff96e1f2b6a682f133852f6798a09c465da95921460cefb38474024989060200160405180910390a15050505050565b6000612cea613bd7565b905090565b60665460ff1615611a365760405162461bcd60e51b815260206004820152601060248201526f14185d5cd8589b194e881c185d5cd95960821b6044820152606401610a35565b600080612d428387615148565b9050612710612d5561ffff861683615320565b612d6361ffff881684615320565b61010154612d7c90600160a01b900461ffff1685615320565b612d869190615148565b612d909190615148565b612d9a9190615337565b612da49082615148565b9695505050505050565b604080516001600160a01b0385811660248301528416604482015260648082018490528251808303909101815260849091019091526020810180516001600160e01b03166323b872dd60e01b179052612e08908590613c10565b50505050565b600060fc600084815260200190815260200160002090507f8b4f0e94aa0aee74c276abd2d92a5e2737a493b055e19d5b2d4c0ac573242a158386868460030160009054906101000a90046001600160a01b031685600401548660060154876007015461010160149054906101000a900461ffff168960080160029054906101000a900461ffff168a60080160049054906101000a900461ffff168b60080160069054906101000a90046001600160a01b03168c600d018d600e0154604051612ee29d9c9b9a99989796959493929190615359565b60405180910390a1827f61606860eb6c87306811e2695215385101daab53bd6ab4e9f9049aead9363c7d83604051612f1a919061530d565b60405180910390a25050505050565b612f31612ce0565b6001600160a01b0316612f4c6033546001600160a01b031690565b6001600160a01b031614611a365760405162461bcd60e51b815260206004820181905260248201527f4f776e61626c653a2063616c6c6572206973206e6f7420746865206f776e65726044820152606401610a35565b600082815260fc602052604090206002821115612ff25760405162461bcd60e51b815260206004820152600e60248201526d496e76616c69642072756c696e6760901b6044820152606401610a35565b60018101546002820154600483018054600a85018054600b87018054600095869055928590559390935560088601805460ff60d01b1916600160d21b1790556001600160a01b03948516949093169290919060001987016130ad576040516001600160a01b038616908390600081818185875af1925050503d8060008114613096576040519150601f19603f3d011682016040523d82523d6000602084013e61309b565b606091505b5050506130a88884613a0a565b6131e8565b6001198701613111576040516001600160a01b038516908290600081818185875af1925050503d80600081146130ff576040519150601f19603f3d011682016040523d82523d6000602084013e613104565b606091505b5050506130a8888461368a565b600061311e600284615337565b9050600061312d600286615337565b90506131398a82613a0a565b6131438a8261368a565b6040516001600160a01b038816908390600081818185875af1925050503d806000811461318c576040519150601f19603f3d011682016040523d82523d6000602084013e613191565b606091505b50506040516001600160a01b03881691508390600081818185875af1925050503d80600081146131dd576040519150601f19603f3d011682016040523d82523d6000602084013e6131e2565b606091505b50505050505b877f76b363d70472d47d20e4119f3625c05ed37ca51b1d9e1cd8b87d8c20530640f38860405161321a91815260200190565b60405180910390a25050505050505050565b61170b612f29565b7f4910fdfa16fed3260ed0e7147f7cc6da11a60208b5b9406d12a635614ffd91435460ff161561326757611efe83613ce2565b826001600160a01b03166352d1902d6040518163ffffffff1660e01b8152600401602060405180830381865afa9250505080156132c1575060408051601f3d908101601f191682019092526132be91810190614b45565b60015b6133245760405162461bcd60e51b815260206004820152602e60248201527f45524331393637557067726164653a206e657720696d706c656d656e7461746960448201526d6f6e206973206e6f74205555505360901b6064820152608401610a35565b60008051602061549083398151915281146133935760405162461bcd60e51b815260206004820152602960248201527f45524331393637557067726164653a20756e737570706f727465642070726f786044820152681a58589b195555525160ba1b6064820152608401610a35565b50611efe838383613d7e565b600084815260fc60205260408120908460018111156133c0576133c06145fc565b036134665760ff546040516331a9108f60e11b8152600481018590526001600160a01b0390911690636352211e90602401602060405180830381865afa15801561340e573d6000803e3d6000fd5b505050506040513d601f19601f8201168201806040525081019061343291906152f0565b60018201546001600160a01b039081169116146134615760405162461bcd60e51b8152600401610a3590614eed565b61351b565b600184600181111561347a5761347a6145fc565b0361351b5760ff546040516331a9108f60e11b8152600481018590526001600160a01b0390911690636352211e90602401602060405180830381865afa1580156134c8573d6000803e3d6000fd5b505050506040513d601f19601f820116820180604052508101906134ec91906152f0565b60028201546001600160a01b0390811691161461351b5760405162461bcd60e51b8152600401610a3590614eed565b610103548154106135675760405162461bcd60e51b8152602060048201526016602482015275125b9d985b1a59081d1c985b9cd858dd1a5bdb881a5960521b6044820152606401610a35565b60006008820154600160d01b900460ff166004811115613589576135896145fc565b146135e45760405162461bcd60e51b815260206004820152602560248201527f546865207472616e73616374696f6e2073686f756c646e2774206265206469736044820152641c1d5d195960da1b6064820152608401610a35565b818160040154101561362d5760405162461bcd60e51b8152602060048201526012602482015271496e73756666696369656e742066756e647360701b6044820152606401610a35565b6127108210158061364d57506127108210801561364d5750806004015482145b6116285760405162461bcd60e51b815260206004820152600e60248201526d416d6f756e7420746f6f206c6f7760901b6044820152606401610a35565b6136948282613da3565b600082815260fc60205260409020600281015460038201546136c3916001600160a01b03908116911684613aa7565b611efe83600084614129565b6136d761424f565b6066805460ff191690557f5db9ee0a495bf2e6ff9c91a7834c1ba4fdd244a5e8aa4e537bd38aeae4b073aa61370a612ce0565b6040516001600160a01b03909116815260200160405180910390a1565b600082815260fc60205260409081902060088101805460ff60d01b1916600360d01b1790819055915163c13517e160e01b81529091600160301b90046001600160a01b031690819063c13517e190859061378b90600290600d8801906004016153e7565b60206040518083038185885af11580156137a9573d6000803e3d6000fd5b50505050506040513d601f19601f820116820180604052508101906137ce9190614b45565b600983018181556000918252610102602090815260409283902087905590548251878152918201879052916001600160a01b038416917f74baab670a4015ab2f1b467c5252a96141a2573f2908e58a92081e80d3cfde3d910160405180910390a38282600a015411156138da5760008383600a015461384d9190615135565b600a840185905560018401546040519192506001600160a01b0316908290600081818185875af1925050503d80600081146138a4576040519150601f19603f3d011682016040523d82523d6000602084013e6138a9565b606091505b505050846000805160206154b083398151915260016000346040516138d09392919061529a565b60405180910390a2505b8282600b01541115612e085760008383600b01546138f89190615135565b600b840185905560028401546040519192506001600160a01b0316908290600081818185875af1925050503d806000811461394f576040519150601f19603f3d011682016040523d82523d6000602084013e613954565b606091505b505050846000805160206154b083398151915260018034604051612f1a9392919061529a565b603380546001600160a01b038381166001600160a01b0319831681179093556040519116919082907f8be0079c531659141344cd1fd0a4f28419497f9722a3daafe3b4186f6b6457e090600090a35050565b6139d4612cef565b6066805460ff191660011790557f62e78cea01bee320cd4e420270b5ea74000d11b0c9f74754ebdbfc544b05a25861370a612ce0565b600082815260fc6020526040812060118101549091908103613a2d576000613a4b565b60118201546010830154613a419085615320565b613a4b9190615337565b6008830154909150600090613a7790859061ffff62010000820481169164010000000090041685612d35565b60018401546003850154919250613a9b916001600160a01b03918216911683613aa7565b61162885600186614129565b6001600160a01b038216600003613b0e576040516001600160a01b038416908290600081818185875af1925050503d8060008114613b01576040519150601f19603f3d011682016040523d82523d6000602084013e613b06565b606091505b505050505050565b60405163a9059cbb60e01b81526001600160a01b0384811660048301526024820183905283169063a9059cbb906044016020604051808303816000875af1158015613b5d573d6000803e3d6000fd5b505050506040513d601f19601f82011682018060405250810190612e0891906150ce565b600054610100900460ff16613ba85760405162461bcd60e51b8152600401610a3590615403565b611a36614298565b600054610100900460ff16611a365760405162461bcd60e51b8152600401610a3590615403565b600060143610801590613bf957503360009081526065602052604090205460ff165b15613c0b575060131936013560601c90565b503390565b6000613c65826040518060400160405280602081526020017f5361666545524332303a206c6f772d6c6576656c2063616c6c206661696c6564815250856001600160a01b03166142cf9092919063ffffffff16565b805190915015611efe5780806020019051810190613c8391906150ce565b611efe5760405162461bcd60e51b815260206004820152602a60248201527f5361666545524332303a204552433230206f7065726174696f6e20646964206e6044820152691bdd081cdd58d8d9595960b21b6064820152608401610a35565b6001600160a01b0381163b613d4f5760405162461bcd60e51b815260206004820152602d60248201527f455243313936373a206e657720696d706c656d656e746174696f6e206973206e60448201526c1bdd08184818dbdb9d1c9858dd609a1b6064820152608401610a35565b60008051602061549083398151915280546001600160a01b0319166001600160a01b0392909216919091179055565b613d87836142e8565b600082511180613d945750805b15611efe57612e088383614328565b600082815260fc602052604080822060fe5460068201546007830154935163353bb87f60e21b81526004810191909152602481019390935290929182916001600160a01b03169063d4eee1fc90604401600060405180830381865afa158015613e10573d6000803e3d6000fd5b505050506040513d6000823e601f3d908101601f19168201604052613e389190810190614ca8565b60a0820151608082015160088701549395509193509160009061271090613e6490899061ffff16615320565b613e6e9190615337565b600887015490915060009061271090613e92908a9062010000900461ffff16615320565b613e9c9190615337565b600888015490915060009061271090613ec2908b90640100000000900461ffff16615320565b613ecc9190615337565b60038901546001600160a01b031660009081527fc34a738ec333e394a3927794cadc6dd0eb7d9eed0999d1e55021ea223ac362cc6020526040812080549293508592909190613f1c908490615148565b9091555050600085815260fd6020908152604080832060038c01546001600160a01b0316845290915281208054849290613f57908490615148565b9091555050600084815260fd6020908152604080832060038c01546001600160a01b0316845290915281208054839290613f92908490615148565b9091555050600f88015415801590613fad5750601088015415155b1561406f576000886011015489601001548b613fc99190615320565b613fd39190615337565b600f8a015460009081526101046020908152604080832060038e01546001600160a01b03168452909152812080549293508392909190614014908490615148565b90915550506003890154600f8a015460068b015460408051918252602082018590526001600160a01b03909316927f7be8d1d5def43ba21be043f0d166965a1c479d40c0fac41f9a9fe18f1a9a2863910160405180910390a3505b6003880154600689015460408051888152602081019290925281018490526001600160a01b03909116907f17c48ab8e1617182f35ae77fd7da7f4e15dedf7018aa371a4481c20c790b65469060600160405180910390a26003880154600689015460408051878152602081019290925281018490526001600160a01b03909116907f3476ed3eea2cdac584273bc8830824c8ca42ca2a99e9f144a87a1cdbbf9dd15a9060600160405180910390a250505050505050505050565b600083815260fc6020526040908190208054600382015460068301546007840154945193947ff3afebb51c3c2b45151cf0572b3d287505cf6ecea01df5f222c1d8cf0159f2279461418a949389936001600160a01b0390911692899261544e565b60405180910390a18060040154600003612e085760fe5460068201546005830154604051635ab9ae0f60e11b8152600481019290925260248201526001600160a01b039091169063b5735c1e90604401600060405180830381600087803b1580156141f457600080fd5b505af1158015614208573d6000803e3d6000fd5b505050507f6bef1b5e95b741d6e665eb9b5c2d3e1203c46a771451055a9d41e0b8ff4510b7816006015460405161424191815260200190565b60405180910390a150505050565b60665460ff16611a365760405162461bcd60e51b815260206004820152601460248201527314185d5cd8589b194e881b9bdd081c185d5cd95960621b6044820152606401610a35565b600054610100900460ff166142bf5760405162461bcd60e51b8152600401610a3590615403565b611a366142ca612ce0565b61397a565b60606142de848460008561441e565b90505b9392505050565b6142f181613ce2565b6040516001600160a01b038216907fbc7cd75a20ee27fd9adebab32041f755214dbc6bffa90cc0225b39da2e5c2d3b90600090a250565b60606001600160a01b0383163b6143905760405162461bcd60e51b815260206004820152602660248201527f416464726573733a2064656c65676174652063616c6c20746f206e6f6e2d636f6044820152651b9d1c9858dd60d21b6064820152608401610a35565b600080846001600160a01b0316846040516143ab9190614f14565b600060405180830381855af49150503d80600081146143e6576040519150601f19603f3d011682016040523d82523d6000602084013e6143eb565b606091505b509150915061441382826040518060600160405280602781526020016154d0602791396144f9565b925050505b92915050565b60608247101561447f5760405162461bcd60e51b815260206004820152602660248201527f416464726573733a20696e73756666696369656e742062616c616e636520666f6044820152651c8818d85b1b60d21b6064820152608401610a35565b600080866001600160a01b0316858760405161449b9190614f14565b60006040518083038185875af1925050503d80600081146144d8576040519150601f19603f3d011682016040523d82523d6000602084013e6144dd565b606091505b50915091506144ee87838387614512565b979650505050505050565b606083156145085750816142e1565b6142e18383614587565b6060831561458157825160000361457a576001600160a01b0385163b61457a5760405162461bcd60e51b815260206004820152601d60248201527f416464726573733a2063616c6c20746f206e6f6e2d636f6e74726163740000006044820152606401610a35565b5081611455565b61145583835b8151156145975781518083602001fd5b8060405162461bcd60e51b8152600401610a35919061530d565b6001600160a01b038116811461170b57600080fd5b6000602082840312156145d857600080fd5b81356142e1816145b1565b6000602082840312156145f557600080fd5b5035919050565b634e487b7160e01b600052602160045260246000fd5b60058110614622576146226145fc565b9052565b60005b83811015614641578181015183820152602001614629565b50506000910152565b60008151808452614662816020860160208601614626565b601f01601f19169290920160200192915050565b60208152815160208201526000602083015161469d60408401826001600160a01b03169052565b5060408301516001600160a01b03811660608401525060608301516001600160a01b038116608084015250608083015160a083015260a083015160c083015260c083015160e083015260e083015161010081818501528085015191505061012061470c8185018361ffff169052565b84015190506101406147238482018361ffff169052565b840151905061016061473a8482018361ffff169052565b8401519050610180614756848201836001600160a01b03169052565b84015190506101a061476a84820183614612565b8401516101c0848101919091528401516101e08085019190915284015161020080850191909152840151610220808501919091528401516102c0610240808601829052919250906147bf6102e086018461464a565b9086015161026086810191909152860151610280808701919091528601516102a080870191909152909501519301929092525090919050565b634e487b7160e01b600052604160045260246000fd5b604051610100810167ffffffffffffffff81118282101715614832576148326147f8565b60405290565b604051610160810167ffffffffffffffff81118282101715614832576148326147f8565b604051601f8201601f1916810167ffffffffffffffff81118282101715614885576148856147f8565b604052919050565b600067ffffffffffffffff8211156148a7576148a76147f8565b50601f01601f191660200190565b60006148c86148c38461488d565b61485c565b90508281528383830111156148dc57600080fd5b828260208301376000602084830101529392505050565b600082601f83011261490457600080fd5b6142e1838335602085016148b5565b6000806000806080858703121561492957600080fd5b8435935060208501359250604085013567ffffffffffffffff8082111561494f57600080fd5b61495b888389016148f3565b9350606087013591508082111561497157600080fd5b5061497e878288016148f3565b91505092959194509250565b6000806040838503121561499d57600080fd5b50508035926020909101359150565b6000806000606084860312156149c157600080fd5b505081359360208301359350604090920135919050565b600080604083850312156149eb57600080fd5b82356149f6816145b1565b9150602083013567ffffffffffffffff811115614a1257600080fd5b8301601f81018513614a2357600080fd5b614a32858235602084016148b5565b9150509250929050565b600080600060608486031215614a5157600080fd5b8335925060208401359150604084013567ffffffffffffffff811115614a7657600080fd5b614a82868287016148f3565b9150509250925092565b60008060408385031215614a9f57600080fd5b823591506020830135614ab1816145b1565b809150509250929050565b61ffff8116811461170b57600080fd5b600060208284031215614ade57600080fd5b81356142e181614abc565b60008060008060808587031215614aff57600080fd5b8435614b0a816145b1565b93506020850135614b1a816145b1565b92506040850135614b2a816145b1565b91506060850135614b3a816145b1565b939692955090935050565b600060208284031215614b5757600080fd5b5051919050565b600181811c90821680614b7257607f821691505b602082108103614b9257634e487b7160e01b600052602260045260246000fd5b50919050565b805160058110614ba757600080fd5b919050565b600082601f830112614bbd57600080fd5b8151614bcb6148c38261488d565b818152846020838601011115614be057600080fd5b611455826020830160208701614626565b8051614ba7816145b1565b805160028110614ba757600080fd5b60006101008284031215614c1e57600080fd5b614c2661480e565b9050614c3182614bfc565b815260208201516020820152614c4960408301614bf1565b6040820152606082015160608201526080820151608082015260a082015167ffffffffffffffff811115614c7c57600080fd5b614c8884828501614bac565b60a08301525060c082015160c082015260e082015160e082015292915050565b60008060408385031215614cbb57600080fd5b825167ffffffffffffffff80821115614cd357600080fd5b908401906101008287031215614ce857600080fd5b614cf061480e565b614cf983614b98565b81526020830151602082015260408301516040820152606083015182811115614d2157600080fd5b614d2d88828601614bac565b6060830152506080830151608082015260a083015160a0820152614d5360c08401614bf1565b60c082015260e083015160e0820152809450506020850151915080821115614d7a57600080fd5b50614a3285828601614c0b565b60008060408385031215614d9a57600080fd5b8251614da5816145b1565b6020840151909250614ab1816145b1565b8051614ba781614abc565b600060208284031215614dd357600080fd5b815167ffffffffffffffff80821115614deb57600080fd5b908301906101608286031215614e0057600080fd5b614e08614838565b82518152602083015182811115614e1e57600080fd5b614e2a87828601614bac565b602083015250604083015182811115614e4257600080fd5b614e4e87828601614bac565b604083015250614e6060608401614db6565b6060820152614e7160808401614db6565b608082015260a083015160a082015260c083015160c0820152614e9660e08401614bf1565b60e08201526101008084015183811115614eaf57600080fd5b614ebb88828701614bac565b828401525050610120915081830151828201526101409150614ede828401614bf1565b91810191909152949350505050565b6020808252600d908201526c1058d8d95cdcc819195b9a5959609a1b604082015260600190565b60008251614f26818460208701614626565b9190910192915050565b601f821115611efe57600081815260208120601f850160051c81016020861015614f575750805b601f850160051c820191505b81811015613b0657828155600101614f63565b815167ffffffffffffffff811115614f9057614f906147f8565b614fa481614f9e8454614b5e565b84614f30565b602080601f831160018114614fd95760008415614fc15750858301515b600019600386901b1c1916600185901b178555613b06565b600085815260208120601f198616915b8281101561500857888601518255948401946001909101908401614fe9565b50858210156150265787850151600019600388901b60f8161c191681555b5050505050600190811b01905550565b6020808252602c908201527f46756e6374696f6e206d7573742062652063616c6c6564207468726f7567682060408201526b19195b1959d85d1958d85b1b60a21b606082015260800190565b6020808252602c908201527f46756e6374696f6e206d7573742062652063616c6c6564207468726f7567682060408201526b6163746976652070726f787960a01b606082015260800190565b6000602082840312156150e057600080fd5b815180151581146142e157600080fd5b6020808252601590820152744e6f74206f776e6572206f722064656c656761746560581b604082015260600190565b634e487b7160e01b600052601160045260246000fd5b818103818111156144185761441861511f565b808201808211156144185761441861511f565b602080825260129082015271105c989a5d1c985d1bdc881b9bdd081cd95d60721b604082015260600190565b6020808252604d908201527f446973707574652068617320616c7265616479206265656e206372656174656460408201527f206f72206265636175736520746865207472616e73616374696f6e206861732060608201526c1899595b88195e1958dd5d1959609a1b608082015260a00190565b6000815461520781614b5e565b808552602060018381168015615224576001811461523e5761526c565b60ff1985168884015283151560051b88018301955061526c565b866000528260002060005b858110156152645781548a8201860152908301908401615249565b890184019650505b505050505092915050565b6020815260006142e160208301846151fa565b6002811061170b5761170b6145fc565b606081016152a78561528a565b8482526152b38461528a565b602082019390935260400152919050565b602081016152d18361528a565b91905290565b8281526040602082015260006142de60408301846151fa565b60006020828403121561530257600080fd5b81516142e1816145b1565b6020815260006142e1602083018461464a565b80820281158282048414176144185761441861511f565b60008261535457634e487b7160e01b600052601260045260246000fd5b500490565b8d8152602081018d9052604081018c90526001600160a01b038b81166060830152608082018b905260a082018a905260c0820189905261ffff88811660e08401528781166101008401528616610120830152841661014082015260006101a0806101608401526153cb818401866151fa565b915050826101808301529e9d5050505050505050505050505050565b60ff831681526040602082015260006142de60408301846151fa565b6020808252602b908201527f496e697469616c697a61626c653a20636f6e7472616374206973206e6f74206960408201526a6e697469616c697a696e6760a81b606082015260800190565b86815260c0810161545e8761528a565b60208201969096526001600160a01b039490941660408501526060840192909252608083015260a09091015291905056fe360894a13ba1a3210667c828492db98dca3e2076cc3735a920a3ca505d382bbc73e533bc8a993eccbc1023beebad0020f6b6c3639f83062f00fc194b4d1172ba416464726573733a206c6f772d6c6576656c2064656c65676174652063616c6c206661696c6564a2646970667358221220ebf0fdcd633b2aa3cc45cd6844284d1b24a3cd790fcd8ef9ad87dff0726b7fe764736f6c63430008110033",
  "linkReferences": {},
  "deployedLinkReferences": {}
}